{
  "contractName": "ERC721",
  "abi": [
    {
      "anonymous": false,
      "inputs": [
        {
          "indexed": true,
          "internalType": "address",
          "name": "_owner",
          "type": "address"
        },
        {
          "indexed": true,
          "internalType": "address",
          "name": "_approved",
          "type": "address"
        },
        {
          "indexed": true,
          "internalType": "uint256",
          "name": "_tokenId",
          "type": "uint256"
        }
      ],
      "name": "Approval",
      "type": "event"
    },
    {
      "anonymous": false,
      "inputs": [
        {
          "indexed": true,
          "internalType": "address",
          "name": "_from",
          "type": "address"
        },
        {
          "indexed": true,
          "internalType": "address",
          "name": "_to",
          "type": "address"
        },
        {
          "indexed": true,
          "internalType": "uint256",
          "name": "_tokenId",
          "type": "uint256"
        }
      ],
      "name": "Transfer",
      "type": "event"
    },
    {
      "inputs": [
        {
          "internalType": "bytes4",
          "name": "interfaceID",
          "type": "bytes4"
        }
      ],
      "name": "supportsInterface",
      "outputs": [
        {
          "internalType": "bool",
          "name": "",
          "type": "bool"
        }
      ],
      "stateMutability": "view",
      "type": "function"
    },
    {
      "inputs": [
        {
          "internalType": "address",
          "name": "_owner",
          "type": "address"
        }
      ],
      "name": "balanceOf",
      "outputs": [
        {
          "internalType": "uint256",
          "name": "",
          "type": "uint256"
        }
      ],
      "stateMutability": "view",
      "type": "function"
    },
    {
      "inputs": [
        {
          "internalType": "uint256",
          "name": "_tokenId",
          "type": "uint256"
        }
      ],
      "name": "ownerOf",
      "outputs": [
        {
          "internalType": "address",
          "name": "",
          "type": "address"
        }
      ],
      "stateMutability": "view",
      "type": "function"
    },
    {
      "inputs": [
        {
          "internalType": "address",
          "name": "_from",
          "type": "address"
        },
        {
          "internalType": "address",
          "name": "_to",
          "type": "address"
        },
        {
          "internalType": "uint256",
          "name": "_tokenId",
          "type": "uint256"
        }
      ],
      "name": "_transferFrom",
      "outputs": [],
      "stateMutability": "nonpayable",
      "type": "function"
    },
    {
      "inputs": [
        {
          "internalType": "address",
          "name": "_to",
          "type": "address"
        },
        {
          "internalType": "uint256",
          "name": "_tokenId",
          "type": "uint256"
        }
      ],
      "name": "approveTransfer",
      "outputs": [],
      "stateMutability": "nonpayable",
      "type": "function"
    },
    {
      "inputs": [
        {
          "internalType": "address",
          "name": "_from",
          "type": "address"
        },
        {
          "internalType": "address",
          "name": "_to",
          "type": "address"
        },
        {
          "internalType": "uint256",
          "name": "_tokenId",
          "type": "uint256"
        }
      ],
      "name": "transferFrom",
      "outputs": [],
      "stateMutability": "nonpayable",
      "type": "function"
    }
  ],
  "bytecode": "0x608060405234801561001057600080fd5b506100407f01ffc9a7a5cef8baa21ed3c5c0d7e23accb804b619e9333b597f47a0d84076e261004560201b60201c565b610196565b63ffffffff60e01b817bffffffffffffffffffffffffffffffffffffffffffffffffffffffff1916036100ad576040517f08c379a00000000000000000000000000000000000000000000000000000000081526004016100a490610176565b60405180910390fd5b6001600080837bffffffffffffffffffffffffffffffffffffffffffffffffffffffff19167bffffffffffffffffffffffffffffffffffffffffffffffffffffffff1916815260200190815260200160002060006101000a81548160ff02191690831515021790555050565b600082825260208201905092915050565b7f496e76616c756420696e74657266616365207265717565737465640000000000600082015250565b6000610160601b83610119565b915061016b8261012a565b602082019050919050565b6000602082019050818103600083015261018f81610153565b9050919050565b611005806101a56000396000f3fe608060405234801561001057600080fd5b50600436106100625760003560e01c806301ffc9a71461006757806323b872dd146100975780636352211e146100b357806370a08231146100e3578063cb71253514610113578063fa02c4b71461012f575b600080fd5b610081600480360381019061007c91906108ab565b61014b565b60405161008e91906108f3565b60405180910390f35b6100b160048036038101906100ac91906109a2565b6101b2565b005b6100cd60048036038101906100c891906109f5565b61020b565b6040516100da9190610a31565b60405180910390f35b6100fd60048036038101906100f89190610a4c565b6102bc565b60405161010a9190610a88565b60405180910390f35b61012d600480360381019061012891906109a2565b610373565b005b61014960048036038101906101449190610aa3565b6105b8565b005b6000806000837bffffffffffffffffffffffffffffffffffffffffffffffffffffffff19167bffffffffffffffffffffffffffffffffffffffffffffffffffffffff1916815260200190815260200160002060009054906101000a900460ff169050919050565b6101bc338261074d565b6101fb576040517f08c379a00000000000000000000000000000000000000000000000000000000081526004016101f290610b40565b60405180910390fd5b610206838383610373565b505050565b6000806001600084815260200190815260200160002060009054906101000a900473ffffffffffffffffffffffffffffffffffffffff169050600073ffffffffffffffffffffffffffffffffffffffff168173ffffffffffffffffffffffffffffffffffffffff16036102b3576040517f08c379a00000000000000000000000000000000000000000000000000000000081526004016102aa90610bd2565b60405180910390fd5b80915050919050565b60008073ffffffffffffffffffffffffffffffffffffffff168273ffffffffffffffffffffffffffffffffffffffff160361032c576040517f08c379a000000000000000000000000000000000000000000000000000000000815260040161032390610c64565b60405180910390fd5b600260008373ffffffffffffffffffffffffffffffffffffffff1673ffffffffffffffffffffffffffffffffffffffff168152602001908152602001600020549050919050565b600073ffffffffffffffffffffffffffffffffffffffff168273ffffffffffffffffffffffffffffffffffffffff16036103e2576040517f08c379a00000000000000000000000000000000000000000000000000000000081526004016103d990610cf6565b60405180910390fd5b8273ffffffffffffffffffffffffffffffffffffffff166104028261020b565b73ffffffffffffffffffffffffffffffffffffffff1614610458576040517f08c379a000000000000000000000000000000000000000000000000000000000815260040161044f90610d88565b60405180910390fd5b6001600260008573ffffffffffffffffffffffffffffffffffffffff1673ffffffffffffffffffffffffffffffffffffffff16815260200190815260200160002060008282546104a89190610dd7565b925050819055506001600260008473ffffffffffffffffffffffffffffffffffffffff1673ffffffffffffffffffffffffffffffffffffffff16815260200190815260200160002060008282546104ff9190610e0b565b92505081905550816001600083815260200190815260200160002060006101000a81548173ffffffffffffffffffffffffffffffffffffffff021916908373ffffffffffffffffffffffffffffffffffffffff160217905550808273ffffffffffffffffffffffffffffffffffffffff168473ffffffffffffffffffffffffffffffffffffffff167fddf252ad1be2c89b69c2b068fc378daa952ba7f163c4a11628f55a4df523b3ef60405160405180910390a4505050565b6105c18161020b565b73ffffffffffffffffffffffffffffffffffffffff163373ffffffffffffffffffffffffffffffffffffffff161461062e576040517f08c379a000000000000000000000000000000000000000000000000000000000815260040161062590610eb1565b60405180910390fd5b8173ffffffffffffffffffffffffffffffffffffffff163373ffffffffffffffffffffffffffffffffffffffff160361069c576040517f08c379a000000000000000000000000000000000000000000000000000000000815260040161069390610f43565b60405180910390fd5b816003600083815260200190815260200160002060006101000a81548173ffffffffffffffffffffffffffffffffffffffff021916908373ffffffffffffffffffffffffffffffffffffffff160217905550808273ffffffffffffffffffffffffffffffffffffffff163373ffffffffffffffffffffffffffffffffffffffff167f8c5be1e5ebec7d5bd14f71427d1e84f3dd0314c0f7b2291e5b200ac8c7c3b92560405160405180910390a45050565b6000610758826107dc565b610797576040517f08c379a000000000000000000000000000000000000000000000000000000000815260040161078e90610faf565b60405180910390fd5b60006107a28361020b565b90508073ffffffffffffffffffffffffffffffffffffffff168473ffffffffffffffffffffffffffffffffffffffff161491505092915050565b6000806001600084815260200190815260200160002060009054906101000a900473ffffffffffffffffffffffffffffffffffffffff169050600073ffffffffffffffffffffffffffffffffffffffff168173ffffffffffffffffffffffffffffffffffffffff161415915050919050565b600080fd5b60007fffffffff0000000000000000000000000000000000000000000000000000000082169050919050565b61088881610853565b811461089357600080fd5b50565b6000813590506108a58161087f565b92915050565b6000602082840312156108c1576108c061084e565b5b60006108cf84828501610896565b91505092915050565b60008115159050919050565b6108ed816108d8565b82525050565b600060208201905061090860008301846108e4565b92915050565b600073ffffffffffffffffffffffffffffffffffffffff82169050919050565b60006109398261090e565b9050919050565b6109498161092e565b811461095457600080fd5b50565b60008135905061096681610940565b92915050565b6000819050919050565b61097f8161096c565b811461098a57600080fd5b50565b60008135905061099c81610976565b92915050565b6000806000606084860312156109bb576109ba61084e565b5b60006109c986828701610957565b93505060206109da86828701610957565b92505060406109eb8682870161098d565b9150509250925092565b600060208284031215610a0b57610a0a61084e565b5b6000610a198482850161098d565b91505092915050565b610a2b8161092e565b82525050565b6000602082019050610a466000830184610a22565b92915050565b600060208284031215610a6257610a6161084e565b5b6000610a7084828501610957565b91505092915050565b610a828161096c565b82525050565b6000602082019050610a9d6000830184610a79565b92915050565b60008060408385031215610aba57610ab961084e565b5b6000610ac885828601610957565b9250506020610ad98582860161098d565b9150509250929050565b600082825260208201905092915050565b7f4552433732313a205472616e73666572206973206e6f7420617070726f766564600082015250565b6000610b2a602083610ae3565b9150610b3582610af4565b602082019050919050565b60006020820190508181036000830152610b5981610b1d565b9050919050565b7f4552433732313a206f776e65724f6620746f20746865207a65726f206164647260008201527f6573730000000000000000000000000000000000000000000000000000000000602082015250565b6000610bbc602383610ae3565b9150610bc782610b60565b604082019050919050565b60006020820190508181036000830152610beb81610baf565b9050919050565b7f4552433732313a2062616c616e63654f6620746f20746865207a65726f20616460008201527f6472657373000000000000000000000000000000000000000000000000000000602082015250565b6000610c4e602583610ae3565b9150610c5982610bf2565b604082019050919050565b60006020820190508181036000830152610c7d81610c41565b9050919050565b7f4552433732313a205472616e7366657220546f20496e76616c6964205265636560008201527f6976657220416464726573730000000000000000000000000000000000000000602082015250565b6000610ce0602c83610ae3565b9150610ceb82610c84565b604082019050919050565b60006020820190508181036000830152610d0f81610cd3565b9050919050565b7f4552433732313a20496e76616c696420746f6b656e204964206f776e6572206160008201527f6464726573730000000000000000000000000000000000000000000000000000602082015250565b6000610d72602683610ae3565b9150610d7d82610d16565b604082019050919050565b60006020820190508181036000830152610da181610d65565b9050919050565b7f4e487b7100000000000000000000000000000000000000000000000000000000600052601160045260246000fd5b6000610de28261096c565b9150610ded8361096c565b9250828203905081811115610e0557610e04610da8565b5b92915050565b6000610e168261096c565b9150610e218361096c565b9250828201905080821115610e3957610e38610da8565b5b92915050565b7f4552433732313a2063757272656e742063616c6c6572206973206e6f7420746860008201527f65206f776e6572206f662074686520746f6b656e000000000000000000000000602082015250565b6000610e9b603483610ae3565b9150610ea682610e3f565b604082019050919050565b60006020820190508181036000830152610eca81610e8e565b9050919050565b7f4552433732313a20617070726f76616c20746f2063757272656e74206f776e6560008201527f7200000000000000000000000000000000000000000000000000000000000000602082015250565b6000610f2d602183610ae3565b9150610f3882610ed1565b604082019050919050565b60006020820190508181036000830152610f5c81610f20565b9050919050565b7f455243373231213a20546f6b656e20646f6573206e6f74206578697374000000600082015250565b6000610f99601d83610ae3565b9150610fa482610f63565b602082019050919050565b60006020820190508181036000830152610fc881610f8c565b905091905056fea26469706673582212205b953679efbec2cc5a8bd78ceff5947527dc05b1a1d772cbed0dbff8caf7b03c64736f6c63430008100033",
  "immutableReferences": {},
  "source": "// SPDX-License-Identifier: MIT\npragma solidity ^0.8.0;\n\nimport \"./ERC165.sol\";\nimport \"./interfaces/IERC721.sol\";\n\ncontract ERC721 is ERC165, IERC721 {\n\n    // mapping in solidity creates a hash table of key pair values\n    // mapping from token id to the owner\n    mapping(uint256 => address) private _tokenOwner;\n\n    // mapping from owner to number of owned tokens\n    mapping(address => uint256) private _OwnedTokensCount;\n\n    // mapping from token id to approved addresses\n    mapping(uint256 => address) private _tokenApproval;\n\n    function _exists(uint256 tokenId) internal view returns(bool) {\n        // setting the address of nft owner to check the mapping\n        // of the address from tokenOwner at the tokenId.\n        address owner = _tokenOwner[tokenId];\n        // return truthiness the address is not zero\n        return owner != address(0);\n    }\n\n    // require that the mint address isn't 0\n    // require that the token has not already been minted\n    function _mint(address to, uint256 tokenId) virtual internal {\n        // require that the mint address is not 0\n        require(to != address(0), 'ERC721: minting to the zero address');\n        // requires that the token does not already exist\n        require(!_exists(tokenId), 'ERC721: token already minted');\n        // we are adding a new address with a token id for minting\n        _tokenOwner[tokenId] = to;\n        // keeping track of each address that is missing and the \n        // number of tokens\n        _OwnedTokensCount[to] += 1;\n\n        emit Transfer(address(0), to, tokenId);\n    }\n\n    /// @notice Count all NFTs assigned to an owner\n    /// @dev NFTs assigned to the zero address are considered invalid,\n    /// and function throws for queries abount the zero address.\n    /// @param _owner Address for whom to query the balance\n    /// @return uint256 The number of NFTs owned by _owner possib;u zero. \n\n    function balanceOf(address _owner) public override view returns(uint256) {\n        require(_owner != address(0), 'ERC721: balanceOf to the zero address');\n        return _OwnedTokensCount[_owner];\n    }\n\n    /// @notice Find the owner of an NFT\n    /// @dev NFTs assigned to zero address are considered invalid,\n    /// and query about then do throw.\n    /// @param _tokenId the id ok the nft we want to check.\n    /// @return address owner of the token\n\n    function ownerOf(uint256 _tokenId) public view returns(address) {\n        address owner = _tokenOwner[_tokenId];\n        require(owner != address(0), 'ERC721: ownerOf to the zero address');\n        return owner;\n    }\n\n    /// @notice transfer nft from one address to another\n    /// @param _from The current owner of the NFT\n    /// @param _to The NFT's receiver (The new owner)\n    /// @param _tokenId The NFT to transfer\n\n    function _transferFrom(address _from, address _to, uint256 _tokenId) public {\n        require(_to != address(0), 'ERC721: Transfer To Invalid Receiver Address');\n        require(ownerOf(_tokenId) == _from, 'ERC721: Invalid token Id owner address');\n        // update balance of address _from and _to\n        _OwnedTokensCount[_from] -= 1;\n        _OwnedTokensCount[_to] += 1;\n        // add the token id to the address receiiving the token\n        _tokenOwner[_tokenId] = _to;\n\n        emit Transfer(_from, _to, _tokenId);\n    }\n\n    function approveTransfer(address _to, uint256 _tokenId) public {\n        require(msg.sender == ownerOf(_tokenId), 'ERC721: current caller is not the owner of the token');\n        require(msg.sender != _to, 'ERC721: approval to current owner');\n        _tokenApproval[_tokenId] = _to;\n        emit Approval(msg.sender, _to, _tokenId);\n    }\n\n    function isTransferApproved(address spender, uint256 tokenId) internal view returns(bool) {\n        require(_exists(tokenId), 'ERC721!: Token does not exist');\n        address owner = ownerOf(tokenId);\n        return (spender == owner);\n    }\n\n    function transferFrom(address _from, address _to, uint256 _tokenId) external {\n        require(isTransferApproved(msg.sender, _tokenId), 'ERC721: Transfer is not approved');\n        _transferFrom(_from, _to, _tokenId);\n    }\n\n}",
  "sourcePath": "/Users/diracmurairi/Documents/projects/nft-marketplace/src/contracts/ERC721.sol",
  "compiler": {
    "name": "solc",
    "version": "0.8.16+commit.07a7930e.Emscripten.clang"
  },
  "schemaVersion": "3.4.9",
  "updatedAt": "2022-08-29T16:17:46.592Z",
  "devdoc": {
    "kind": "dev",
    "methods": {
      "_transferFrom(address,address,uint256)": {
        "params": {
          "_from": "The current owner of the NFT",
          "_to": "The NFT's receiver (The new owner)",
          "_tokenId": "The NFT to transfer"
        }
      },
      "balanceOf(address)": {
        "details": "NFTs assigned to the zero address are considered invalid, and function throws for queries abount the zero address.",
        "params": {
          "_owner": "Address for whom to query the balance"
        },
        "returns": {
          "_0": "uint256 The number of NFTs owned by _owner possib;u zero. "
        }
      },
      "ownerOf(uint256)": {
        "details": "NFTs assigned to zero address are considered invalid, and query about then do throw.",
        "params": {
          "_tokenId": "the id ok the nft we want to check."
        },
        "returns": {
          "_0": "address owner of the token"
        }
      },
      "supportsInterface(bytes4)": {
        "details": "Interface identification is specified in ERC-165. This function  uses less than 30,000 gas.",
        "params": {
          "interfaceID": "The interface identifier, as specified in ERC-165"
        },
        "returns": {
          "_0": "`true` if the contract implements `interfaceID` and  `interfaceID` is not 0xffffffff, `false` otherwise"
        }
      }
    },
    "version": 1
  },
  "userdoc": {
    "kind": "user",
    "methods": {
      "_transferFrom(address,address,uint256)": {
        "notice": "transfer nft from one address to another"
      },
      "balanceOf(address)": {
        "notice": "Count all NFTs assigned to an owner"
      },
      "ownerOf(uint256)": {
        "notice": "Find the owner of an NFT"
      },
      "supportsInterface(bytes4)": {
        "notice": "Query if a contract implements an interface"
      }
    },
    "version": 1
  }
}