{
  "contractName": "ERC721Enumerable",
  "abi": [
    {
      "anonymous": false,
      "inputs": [
        {
          "indexed": true,
          "internalType": "address",
          "name": "from",
          "type": "address"
        },
        {
          "indexed": true,
          "internalType": "address",
          "name": "to",
          "type": "address"
        },
        {
          "indexed": true,
          "internalType": "uint256",
          "name": "tokenId",
          "type": "uint256"
        }
      ],
      "name": "Transfer",
      "type": "event"
    },
    {
      "inputs": [
        {
          "internalType": "address",
          "name": "_owner",
          "type": "address"
        }
      ],
      "name": "balanceOf",
      "outputs": [
        {
          "internalType": "uint256",
          "name": "",
          "type": "uint256"
        }
      ],
      "stateMutability": "view",
      "type": "function"
    },
    {
      "inputs": [
        {
          "internalType": "uint256",
          "name": "_tokenId",
          "type": "uint256"
        }
      ],
      "name": "ownerOf",
      "outputs": [
        {
          "internalType": "address",
          "name": "",
          "type": "address"
        }
      ],
      "stateMutability": "view",
      "type": "function"
    },
    {
      "inputs": [],
      "name": "totalSupply",
      "outputs": [
        {
          "internalType": "uint256",
          "name": "",
          "type": "uint256"
        }
      ],
      "stateMutability": "view",
      "type": "function"
    },
    {
      "inputs": [
        {
          "internalType": "uint256",
          "name": "_index",
          "type": "uint256"
        }
      ],
      "name": "tokenByIndex",
      "outputs": [
        {
          "internalType": "uint256",
          "name": "",
          "type": "uint256"
        }
      ],
      "stateMutability": "view",
      "type": "function"
    },
    {
      "inputs": [
        {
          "internalType": "uint256",
          "name": "_index",
          "type": "uint256"
        }
      ],
      "name": "tokenOfOwnerByIndex",
      "outputs": [
        {
          "internalType": "uint256",
          "name": "",
          "type": "uint256"
        }
      ],
      "stateMutability": "view",
      "type": "function"
    }
  ],
  "bytecode": "0x608060405234801561001057600080fd5b5061056e806100206000396000f3fe608060405234801561001057600080fd5b50600436106100575760003560e01c806318160ddd1461005c5780634245f3da1461007a5780634f6ccce7146100aa5780636352211e146100da57806370a082311461010a575b600080fd5b61006461013a565b60405161007191906102d5565b60405180910390f35b610094600480360381019061008f9190610321565b610147565b6040516100a191906102d5565b60405180910390f35b6100c460048036038101906100bf9190610321565b61014e565b6040516100d191906102d5565b60405180910390f35b6100f460048036038101906100ef9190610321565b610155565b604051610101919061038f565b60405180910390f35b610124600480360381019061011f91906103d6565b610205565b60405161013191906102d5565b60405180910390f35b6000600280549050905090565b6000919050565b6000919050565b60008060008084815260200190815260200160002060009054906101000a900473ffffffffffffffffffffffffffffffffffffffff169050600073ffffffffffffffffffffffffffffffffffffffff168173ffffffffffffffffffffffffffffffffffffffff16036101fc576040517f08c379a00000000000000000000000000000000000000000000000000000000081526004016101f390610486565b60405180910390fd5b80915050919050565b60008073ffffffffffffffffffffffffffffffffffffffff168273ffffffffffffffffffffffffffffffffffffffff1603610275576040517f08c379a000000000000000000000000000000000000000000000000000000000815260040161026c90610518565b60405180910390fd5b600160008373ffffffffffffffffffffffffffffffffffffffff1673ffffffffffffffffffffffffffffffffffffffff168152602001908152602001600020549050919050565b6000819050919050565b6102cf816102bc565b82525050565b60006020820190506102ea60008301846102c6565b92915050565b600080fd5b6102fe816102bc565b811461030957600080fd5b50565b60008135905061031b816102f5565b92915050565b600060208284031215610337576103366102f0565b5b60006103458482850161030c565b91505092915050565b600073ffffffffffffffffffffffffffffffffffffffff82169050919050565b60006103798261034e565b9050919050565b6103898161036e565b82525050565b60006020820190506103a46000830184610380565b92915050565b6103b38161036e565b81146103be57600080fd5b50565b6000813590506103d0816103aa565b92915050565b6000602082840312156103ec576103eb6102f0565b5b60006103fa848285016103c1565b91505092915050565b600082825260208201905092915050565b7f4552433732313a206f776e65724f6620746f20746865207a65726f206164647260008201527f6573730000000000000000000000000000000000000000000000000000000000602082015250565b6000610470602383610403565b915061047b82610414565b604082019050919050565b6000602082019050818103600083015261049f81610463565b9050919050565b7f4552433732313a2062616c616e63654f6620746f20746865207a65726f20616460008201527f6472657373000000000000000000000000000000000000000000000000000000602082015250565b6000610502602583610403565b915061050d826104a6565b604082019050919050565b60006020820190508181036000830152610531816104f5565b905091905056fea26469706673582212201fc1f91887e70e0f53489d1e5459c281bb226ffffc8906768bc87dd69efb457864736f6c63430008100033",
  "immutableReferences": {},
  "source": "// SPDX-License-Identifier: MIT\npragma solidity ^0.8.0;\n\nimport './ERC721.sol';\n\ncontract ERC721Enumerable is ERC721 {\n\n    uint256[] private _allTokens;\n\n    // mapping from tokenId to position in _allTokens array\n    mapping(uint256 => uint256) private _allTokensIndex;\n\n    // mapping of owner to list of all owned token ids\n    mapping(address => uint256[]) private _ownedTokens;\n\n    // mapping from token ID index to index of the owner tokens list\n    mapping(uint256 => uint256) private _ownedTokensIndex;\n\n    /// @notice count NFTs tracked by thus contract\n    /// @return uint256 A count of valid NFTs tracked by this contract,\n    function totalSupply() external view returns (uint256) {\n        return _allTokens.length;\n    }\n\n    /// @notice Enumerate valid NFTs\n    /// @dev throws if `_index` >= `totalSupply()`.\n    /// @param _index A counter less than `totoalSupply`\n    /// @return uint256 The token identifier for the `_index`th NFT,\n    /// (sort order not specified)\n    function tokenByIndex(uint256 _index) external view returns(uint256) {}\n\n    function tokenOfOwnerByIndex(uint256 _index) external view returns(uint256){}\n\n    // overide _mint from ERC721\n    function _mint(address to, uint256 tokenId) internal override(ERC721) {\n        super._mint(to, tokenId);\n        _addTokensToAllTokensToTotalSupply(tokenId);\n    }\n\n    function _addTokensToAllTokensToTotalSupply(uint256 tokenId) private {\n        _allTokens.push(tokenId);\n    }\n}",
  "sourcePath": "/Users/diracmurairi/Documents/projects/nft-marketplace/src/contracts/ERC721Enumerable.sol",
  "compiler": {
    "name": "solc",
    "version": "0.8.16+commit.07a7930e.Emscripten.clang"
  },
  "schemaVersion": "3.4.9",
  "updatedAt": "2022-08-18T23:01:13.700Z",
  "devdoc": {
    "kind": "dev",
    "methods": {
      "balanceOf(address)": {
        "details": "NFTs assigned to the zero address are considered invalid, and function throws for queries abount the zero address.",
        "params": {
          "_owner": "Address for whom to query the balance"
        },
        "returns": {
          "_0": "uint256 The number of NFTs owned by _owner possib;u zero. "
        }
      },
      "ownerOf(uint256)": {
        "details": "NFTs assigned to zero address are considered invalid, and query about then do throw.",
        "params": {
          "_tokenId": "the id ok the nft we want to check."
        },
        "returns": {
          "_0": "address owner of the token"
        }
      },
      "tokenByIndex(uint256)": {
        "details": "throws if `_index` >= `totalSupply()`.",
        "params": {
          "_index": "A counter less than `totoalSupply`"
        },
        "returns": {
          "_0": "uint256 The token identifier for the `_index`th NFT, (sort order not specified)"
        }
      },
      "totalSupply()": {
        "returns": {
          "_0": "uint256 A count of valid NFTs tracked by this contract,"
        }
      }
    },
    "version": 1
  },
  "userdoc": {
    "kind": "user",
    "methods": {
      "balanceOf(address)": {
        "notice": "Count all NFTs assigned to an owner"
      },
      "ownerOf(uint256)": {
        "notice": "Find the owner of an NFT"
      },
      "tokenByIndex(uint256)": {
        "notice": "Enumerate valid NFTs"
      },
      "totalSupply()": {
        "notice": "count NFTs tracked by thus contract"
      }
    },
    "version": 1
  }
}