{
  "contractName": "ERC721Enumerable",
  "abi": [
    {
      "inputs": [],
      "stateMutability": "nonpayable",
      "type": "constructor"
    },
    {
      "anonymous": false,
      "inputs": [
        {
          "indexed": true,
          "internalType": "address",
          "name": "_owner",
          "type": "address"
        },
        {
          "indexed": true,
          "internalType": "address",
          "name": "_approved",
          "type": "address"
        },
        {
          "indexed": true,
          "internalType": "uint256",
          "name": "_tokenId",
          "type": "uint256"
        }
      ],
      "name": "Approval",
      "type": "event"
    },
    {
      "anonymous": false,
      "inputs": [
        {
          "indexed": true,
          "internalType": "address",
          "name": "_from",
          "type": "address"
        },
        {
          "indexed": true,
          "internalType": "address",
          "name": "_to",
          "type": "address"
        },
        {
          "indexed": true,
          "internalType": "uint256",
          "name": "_tokenId",
          "type": "uint256"
        }
      ],
      "name": "Transfer",
      "type": "event"
    },
    {
      "inputs": [
        {
          "internalType": "address",
          "name": "_from",
          "type": "address"
        },
        {
          "internalType": "address",
          "name": "_to",
          "type": "address"
        },
        {
          "internalType": "uint256",
          "name": "_tokenId",
          "type": "uint256"
        }
      ],
      "name": "_transferFrom",
      "outputs": [],
      "stateMutability": "nonpayable",
      "type": "function"
    },
    {
      "inputs": [
        {
          "internalType": "address",
          "name": "_to",
          "type": "address"
        },
        {
          "internalType": "uint256",
          "name": "_tokenId",
          "type": "uint256"
        }
      ],
      "name": "approveTransfer",
      "outputs": [],
      "stateMutability": "nonpayable",
      "type": "function"
    },
    {
      "inputs": [
        {
          "internalType": "address",
          "name": "_owner",
          "type": "address"
        }
      ],
      "name": "balanceOf",
      "outputs": [
        {
          "internalType": "uint256",
          "name": "",
          "type": "uint256"
        }
      ],
      "stateMutability": "view",
      "type": "function"
    },
    {
      "inputs": [
        {
          "internalType": "uint256",
          "name": "_tokenId",
          "type": "uint256"
        }
      ],
      "name": "ownerOf",
      "outputs": [
        {
          "internalType": "address",
          "name": "",
          "type": "address"
        }
      ],
      "stateMutability": "view",
      "type": "function"
    },
    {
      "inputs": [
        {
          "internalType": "bytes4",
          "name": "interfaceID",
          "type": "bytes4"
        }
      ],
      "name": "supportsInterface",
      "outputs": [
        {
          "internalType": "bool",
          "name": "",
          "type": "bool"
        }
      ],
      "stateMutability": "view",
      "type": "function"
    },
    {
      "inputs": [
        {
          "internalType": "address",
          "name": "_from",
          "type": "address"
        },
        {
          "internalType": "address",
          "name": "_to",
          "type": "address"
        },
        {
          "internalType": "uint256",
          "name": "_tokenId",
          "type": "uint256"
        }
      ],
      "name": "transferFrom",
      "outputs": [],
      "stateMutability": "nonpayable",
      "type": "function"
    },
    {
      "inputs": [],
      "name": "totalSupply",
      "outputs": [
        {
          "internalType": "uint256",
          "name": "",
          "type": "uint256"
        }
      ],
      "stateMutability": "view",
      "type": "function"
    },
    {
      "inputs": [
        {
          "internalType": "uint256",
          "name": "index",
          "type": "uint256"
        }
      ],
      "name": "tokenByIndex",
      "outputs": [
        {
          "internalType": "uint256",
          "name": "",
          "type": "uint256"
        }
      ],
      "stateMutability": "view",
      "type": "function"
    },
    {
      "inputs": [
        {
          "internalType": "address",
          "name": "owner",
          "type": "address"
        },
        {
          "internalType": "uint256",
          "name": "index",
          "type": "uint256"
        }
      ],
      "name": "tokenOfOwnerByIndex",
      "outputs": [
        {
          "internalType": "uint256",
          "name": "",
          "type": "uint256"
        }
      ],
      "stateMutability": "view",
      "type": "function"
    }
  ],
  "bytecode": "0x60806040523480156200001157600080fd5b50620000437f01ffc9a7a5cef8baa21ed3c5c0d7e23accb804b619e9333b597f47a0d84076e26200013360201b60201c565b620000b87f22c82707ba960a14c7592ffb6b8cfaa073fed0048a84cc7fa41f6b5bd8e7f2e47f3a6eb71757dfc6e784c1459d26270140c2c147d95ca985c80026fc5301c3eca17f8a7e378434598edc36d108689a030cbc9d7d465de4f74c71bae1028eed6a881b18186200013360201b60201c565b6200012d7f8230223f691b981717299fae9549350a0d894555723531f02108b1f522c1a7977f6da5e1284143cdd2d15038a59bde3be031250f00291d64494c12d967b3a4e0c37fc53637662700e6c65104059db8bba34439e0c32483ab7c34e3ccae52c739549518186200013360201b60201c565b6200028d565b63ffffffff60e01b817bffffffffffffffffffffffffffffffffffffffffffffffffffffffff1916036200019e576040517f08c379a000000000000000000000000000000000000000000000000000000000815260040162000195906200026b565b60405180910390fd5b6001600080837bffffffffffffffffffffffffffffffffffffffffffffffffffffffff19167bffffffffffffffffffffffffffffffffffffffffffffffffffffffff1916815260200190815260200160002060006101000a81548160ff02191690831515021790555050565b600082825260208201905092915050565b7f496e76616c756420696e74657266616365207265717565737465640000000000600082015250565b600062000253601b836200020a565b915062000260826200021b565b602082019050919050565b60006020820190508181036000830152620002868162000244565b9050919050565b6112e9806200029d6000396000f3fe608060405234801561001057600080fd5b50600436106100935760003560e01c80634f6ccce7116100665780634f6ccce7146101325780636352211e1461016257806370a0823114610192578063cb712535146101c2578063fa02c4b7146101de57610093565b806301ffc9a71461009857806318160ddd146100c857806323b872dd146100e65780632f745c5914610102575b600080fd5b6100b260048036038101906100ad9190610a88565b6101fa565b6040516100bf9190610ad0565b60405180910390f35b6100d0610261565b6040516100dd9190610b04565b60405180910390f35b61010060048036038101906100fb9190610ba9565b61026e565b005b61011c60048036038101906101179190610bfc565b6102c7565b6040516101299190610b04565b60405180910390f35b61014c60048036038101906101479190610c3c565b610377565b6040516101599190610b04565b60405180910390f35b61017c60048036038101906101779190610c3c565b6103e8565b6040516101899190610c78565b60405180910390f35b6101ac60048036038101906101a79190610c93565b610499565b6040516101b99190610b04565b60405180910390f35b6101dc60048036038101906101d79190610ba9565b610550565b005b6101f860048036038101906101f39190610bfc565b610795565b005b6000806000837bffffffffffffffffffffffffffffffffffffffffffffffffffffffff19167bffffffffffffffffffffffffffffffffffffffffffffffffffffffff1916815260200190815260200160002060009054906101000a900460ff169050919050565b6000600480549050905090565b610278338261092a565b6102b7576040517f08c379a00000000000000000000000000000000000000000000000000000000081526004016102ae90610d1d565b60405180910390fd5b6102c2838383610550565b505050565b60006102d283610499565b8210610313576040517f08c379a000000000000000000000000000000000000000000000000000000000815260040161030a90610d89565b60405180910390fd5b600660008473ffffffffffffffffffffffffffffffffffffffff1673ffffffffffffffffffffffffffffffffffffffff168152602001908152602001600020828154811061036457610363610da9565b5b9060005260206000200154905092915050565b6000610381610261565b82106103c2576040517f08c379a00000000000000000000000000000000000000000000000000000000081526004016103b990610e24565b60405180910390fd5b600482815481106103d6576103d5610da9565b5b90600052602060002001549050919050565b6000806001600084815260200190815260200160002060009054906101000a900473ffffffffffffffffffffffffffffffffffffffff169050600073ffffffffffffffffffffffffffffffffffffffff168173ffffffffffffffffffffffffffffffffffffffff1603610490576040517f08c379a000000000000000000000000000000000000000000000000000000000815260040161048790610eb6565b60405180910390fd5b80915050919050565b60008073ffffffffffffffffffffffffffffffffffffffff168273ffffffffffffffffffffffffffffffffffffffff1603610509576040517f08c379a000000000000000000000000000000000000000000000000000000000815260040161050090610f48565b60405180910390fd5b600260008373ffffffffffffffffffffffffffffffffffffffff1673ffffffffffffffffffffffffffffffffffffffff168152602001908152602001600020549050919050565b600073ffffffffffffffffffffffffffffffffffffffff168273ffffffffffffffffffffffffffffffffffffffff16036105bf576040517f08c379a00000000000000000000000000000000000000000000000000000000081526004016105b690610fda565b60405180910390fd5b8273ffffffffffffffffffffffffffffffffffffffff166105df826103e8565b73ffffffffffffffffffffffffffffffffffffffff1614610635576040517f08c379a000000000000000000000000000000000000000000000000000000000815260040161062c9061106c565b60405180910390fd5b6001600260008573ffffffffffffffffffffffffffffffffffffffff1673ffffffffffffffffffffffffffffffffffffffff168152602001908152602001600020600082825461068591906110bb565b925050819055506001600260008473ffffffffffffffffffffffffffffffffffffffff1673ffffffffffffffffffffffffffffffffffffffff16815260200190815260200160002060008282546106dc91906110ef565b92505081905550816001600083815260200190815260200160002060006101000a81548173ffffffffffffffffffffffffffffffffffffffff021916908373ffffffffffffffffffffffffffffffffffffffff160217905550808273ffffffffffffffffffffffffffffffffffffffff168473ffffffffffffffffffffffffffffffffffffffff167fddf252ad1be2c89b69c2b068fc378daa952ba7f163c4a11628f55a4df523b3ef60405160405180910390a4505050565b61079e816103e8565b73ffffffffffffffffffffffffffffffffffffffff163373ffffffffffffffffffffffffffffffffffffffff161461080b576040517f08c379a000000000000000000000000000000000000000000000000000000000815260040161080290611195565b60405180910390fd5b8173ffffffffffffffffffffffffffffffffffffffff163373ffffffffffffffffffffffffffffffffffffffff1603610879576040517f08c379a000000000000000000000000000000000000000000000000000000000815260040161087090611227565b60405180910390fd5b816003600083815260200190815260200160002060006101000a81548173ffffffffffffffffffffffffffffffffffffffff021916908373ffffffffffffffffffffffffffffffffffffffff160217905550808273ffffffffffffffffffffffffffffffffffffffff163373ffffffffffffffffffffffffffffffffffffffff167f8c5be1e5ebec7d5bd14f71427d1e84f3dd0314c0f7b2291e5b200ac8c7c3b92560405160405180910390a45050565b6000610935826109b9565b610974576040517f08c379a000000000000000000000000000000000000000000000000000000000815260040161096b90611293565b60405180910390fd5b600061097f836103e8565b90508073ffffffffffffffffffffffffffffffffffffffff168473ffffffffffffffffffffffffffffffffffffffff161491505092915050565b6000806001600084815260200190815260200160002060009054906101000a900473ffffffffffffffffffffffffffffffffffffffff169050600073ffffffffffffffffffffffffffffffffffffffff168173ffffffffffffffffffffffffffffffffffffffff161415915050919050565b600080fd5b60007fffffffff0000000000000000000000000000000000000000000000000000000082169050919050565b610a6581610a30565b8114610a7057600080fd5b50565b600081359050610a8281610a5c565b92915050565b600060208284031215610a9e57610a9d610a2b565b5b6000610aac84828501610a73565b91505092915050565b60008115159050919050565b610aca81610ab5565b82525050565b6000602082019050610ae56000830184610ac1565b92915050565b6000819050919050565b610afe81610aeb565b82525050565b6000602082019050610b196000830184610af5565b92915050565b600073ffffffffffffffffffffffffffffffffffffffff82169050919050565b6000610b4a82610b1f565b9050919050565b610b5a81610b3f565b8114610b6557600080fd5b50565b600081359050610b7781610b51565b92915050565b610b8681610aeb565b8114610b9157600080fd5b50565b600081359050610ba381610b7d565b92915050565b600080600060608486031215610bc257610bc1610a2b565b5b6000610bd086828701610b68565b9350506020610be186828701610b68565b9250506040610bf286828701610b94565b9150509250925092565b60008060408385031215610c1357610c12610a2b565b5b6000610c2185828601610b68565b9250506020610c3285828601610b94565b9150509250929050565b600060208284031215610c5257610c51610a2b565b5b6000610c6084828501610b94565b91505092915050565b610c7281610b3f565b82525050565b6000602082019050610c8d6000830184610c69565b92915050565b600060208284031215610ca957610ca8610a2b565b5b6000610cb784828501610b68565b91505092915050565b600082825260208201905092915050565b7f4552433732313a205472616e73666572206973206e6f7420617070726f766564600082015250565b6000610d07602083610cc0565b9150610d1282610cd1565b602082019050919050565b60006020820190508181036000830152610d3681610cfa565b9050919050565b7f6f776e657220696e646578206973206f7574206f6620626f756e647300000000600082015250565b6000610d73601c83610cc0565b9150610d7e82610d3d565b602082019050919050565b60006020820190508181036000830152610da281610d66565b9050919050565b7f4e487b7100000000000000000000000000000000000000000000000000000000600052603260045260246000fd5b7f676c6f62616c20696e646578206973206f7574206f6620626f756e6473000000600082015250565b6000610e0e601d83610cc0565b9150610e1982610dd8565b602082019050919050565b60006020820190508181036000830152610e3d81610e01565b9050919050565b7f4552433732313a206f776e65724f6620746f20746865207a65726f206164647260008201527f6573730000000000000000000000000000000000000000000000000000000000602082015250565b6000610ea0602383610cc0565b9150610eab82610e44565b604082019050919050565b60006020820190508181036000830152610ecf81610e93565b9050919050565b7f4552433732313a2062616c616e63654f6620746f20746865207a65726f20616460008201527f6472657373000000000000000000000000000000000000000000000000000000602082015250565b6000610f32602583610cc0565b9150610f3d82610ed6565b604082019050919050565b60006020820190508181036000830152610f6181610f25565b9050919050565b7f4552433732313a205472616e7366657220546f20496e76616c6964205265636560008201527f6976657220416464726573730000000000000000000000000000000000000000602082015250565b6000610fc4602c83610cc0565b9150610fcf82610f68565b604082019050919050565b60006020820190508181036000830152610ff381610fb7565b9050919050565b7f4552433732313a20496e76616c696420746f6b656e204964206f776e6572206160008201527f6464726573730000000000000000000000000000000000000000000000000000602082015250565b6000611056602683610cc0565b915061106182610ffa565b604082019050919050565b6000602082019050818103600083015261108581611049565b9050919050565b7f4e487b7100000000000000000000000000000000000000000000000000000000600052601160045260246000fd5b60006110c682610aeb565b91506110d183610aeb565b92508282039050818111156110e9576110e861108c565b5b92915050565b60006110fa82610aeb565b915061110583610aeb565b925082820190508082111561111d5761111c61108c565b5b92915050565b7f4552433732313a2063757272656e742063616c6c6572206973206e6f7420746860008201527f65206f776e6572206f662074686520746f6b656e000000000000000000000000602082015250565b600061117f603483610cc0565b915061118a82611123565b604082019050919050565b600060208201905081810360008301526111ae81611172565b9050919050565b7f4552433732313a20617070726f76616c20746f2063757272656e74206f776e6560008201527f7200000000000000000000000000000000000000000000000000000000000000602082015250565b6000611211602183610cc0565b915061121c826111b5565b604082019050919050565b6000602082019050818103600083015261124081611204565b9050919050565b7f455243373231213a20546f6b656e20646f6573206e6f74206578697374000000600082015250565b600061127d601d83610cc0565b915061128882611247565b602082019050919050565b600060208201905081810360008301526112ac81611270565b905091905056fea264697066735822122055e5c8d2970f504b39400ecab3f5518657d68c31181f104597d9e08d4f610aa564736f6c63430008110033",
  "immutableReferences": {},
  "source": "// SPDX-License-Identifier: MIT\npragma solidity ^0.8.0;\n\nimport './ERC721.sol';\nimport \"./interfaces/IERC721Enumerable.sol\";\n\ncontract ERC721Enumerable is ERC721, IERC721Enumerable {\n\n    uint256[] private _allTokens;\n\n    // mapping from tokenId to position in _allTokens array\n    mapping(uint256 => uint256) private _allTokensIndex;\n\n    // mapping of owner to list of all owned token ids\n    mapping(address => uint256[]) private _ownedTokens;\n\n    // mapping from token ID index to index of the owner tokens list\n    mapping(uint256 => uint256) private _ownedTokensIndex;\n\n    constructor() {\n        _registerInterface(bytes4(keccak256('totalSupply(bytes4)')^\n            keccak256('tokenByIndex(bytes4)')^keccak256('tokenOfOwnerByIndex(bytes4)')\n        ));\n    }\n\n    /// @notice add tokens to the _allTokens array \n    /// and set the position of the token indexes\n    function _addTokenToAllTokensToEnumerable(uint256 tokenId) private {\n        // keep track of the tokenId in the list of all tokens\n        _allTokensIndex[tokenId] = _allTokens.length;\n        _allTokens.push(tokenId);\n    }\n\n    /// @notice add the address and token id to the _ownedTokens\n    /// ownedTokensIndex tokenId set to address of ownedTokens position.\n    /// execute the function with minting\n    function _addTokenToOwnerEnumeration(address owner, uint256 tokenId) private {\n        _ownedTokensIndex[tokenId] = _ownedTokens[owner].length;\n        _ownedTokens[owner].push(tokenId);\n    }\n\n    /// @notice count NFTs tracked by thus contract\n    /// @return uint256 A count of valid NFTs tracked by this contract,\n    function totalSupply() public override view returns (uint256) {\n        return _allTokens.length;\n    }\n\n    /// @notice Enumerate valid NFTs\n    /// @dev throws if `index` >= `totalSupply()`.\n    /// @param index A counter less than `totoalSupply`\n    /// @return uint256 The token identifier for the `_index`th NFT,\n    /// (sort order not specified)\n    function tokenByIndex(uint256 index) external override view returns(uint256) {\n        // make sure thr index is not out of range\n        require(index < totalSupply(), 'global index is out of bounds');\n        return _allTokens[index];\n    }\n\n    function tokenOfOwnerByIndex(address owner, uint256 index) external override view returns(uint256){\n        require(index < balanceOf(owner), 'owner index is out of bounds');\n        return _ownedTokens[owner][index];\n    }\n\n    // overide _mint from ERC721\n    function _mint(address to, uint256 tokenId) internal override(ERC721) {\n        super._mint(to, tokenId);\n        _addTokenToAllTokensToEnumerable(tokenId);\n        _addTokenToOwnerEnumeration(to, tokenId);\n    }\n\n}",
  "sourcePath": "/Users/diracmurairi/Documents/projects/nft-marketplace/src/contracts/ERC721Enumerable.sol",
  "compiler": {
    "name": "solc",
    "version": "0.8.17+commit.8df45f5f.Emscripten.clang"
  },
  "schemaVersion": "3.4.9",
  "updatedAt": "2022-09-14T22:02:01.240Z",
  "devdoc": {
    "kind": "dev",
    "methods": {
      "_transferFrom(address,address,uint256)": {
        "params": {
          "_from": "The current owner of the NFT",
          "_to": "The NFT's receiver (The new owner)",
          "_tokenId": "The NFT to transfer"
        }
      },
      "balanceOf(address)": {
        "details": "NFTs assigned to the zero address are considered invalid, and function throws for queries abount the zero address.",
        "params": {
          "_owner": "Address for whom to query the balance"
        },
        "returns": {
          "_0": "uint256 The number of NFTs owned by _owner possib;u zero. "
        }
      },
      "ownerOf(uint256)": {
        "details": "NFTs assigned to zero address are considered invalid, and query about then do throw.",
        "params": {
          "_tokenId": "the id ok the nft we want to check."
        },
        "returns": {
          "_0": "address owner of the token"
        }
      },
      "supportsInterface(bytes4)": {
        "details": "Interface identification is specified in ERC-165. This function  uses less than 30,000 gas.",
        "params": {
          "interfaceID": "The interface identifier, as specified in ERC-165"
        },
        "returns": {
          "_0": "`true` if the contract implements `interfaceID` and  `interfaceID` is not 0xffffffff, `false` otherwise"
        }
      },
      "tokenByIndex(uint256)": {
        "details": "throws if `index` >= `totalSupply()`.",
        "params": {
          "index": "A counter less than `totoalSupply`"
        },
        "returns": {
          "_0": "uint256 The token identifier for the `_index`th NFT, (sort order not specified)"
        }
      },
      "totalSupply()": {
        "returns": {
          "_0": "uint256 A count of valid NFTs tracked by this contract,"
        }
      }
    },
    "version": 1
  },
  "userdoc": {
    "kind": "user",
    "methods": {
      "_transferFrom(address,address,uint256)": {
        "notice": "transfer nft from one address to another"
      },
      "balanceOf(address)": {
        "notice": "Count all NFTs assigned to an owner"
      },
      "ownerOf(uint256)": {
        "notice": "Find the owner of an NFT"
      },
      "supportsInterface(bytes4)": {
        "notice": "Query if a contract implements an interface"
      },
      "tokenByIndex(uint256)": {
        "notice": "Enumerate valid NFTs"
      },
      "totalSupply()": {
        "notice": "count NFTs tracked by thus contract"
      }
    },
    "version": 1
  }
}