{
  "contractName": "KryptoBird",
  "abi": [
    {
      "inputs": [],
      "stateMutability": "nonpayable",
      "type": "constructor"
    },
    {
      "anonymous": false,
      "inputs": [
        {
          "indexed": true,
          "internalType": "address",
          "name": "from",
          "type": "address"
        },
        {
          "indexed": true,
          "internalType": "address",
          "name": "to",
          "type": "address"
        },
        {
          "indexed": true,
          "internalType": "uint256",
          "name": "tokenId",
          "type": "uint256"
        }
      ],
      "name": "Transfer",
      "type": "event"
    },
    {
      "inputs": [
        {
          "internalType": "address",
          "name": "_owner",
          "type": "address"
        }
      ],
      "name": "balanceOf",
      "outputs": [
        {
          "internalType": "uint256",
          "name": "",
          "type": "uint256"
        }
      ],
      "stateMutability": "view",
      "type": "function",
      "constant": true
    },
    {
      "inputs": [
        {
          "internalType": "uint256",
          "name": "",
          "type": "uint256"
        }
      ],
      "name": "kryptoBirdz",
      "outputs": [
        {
          "internalType": "string",
          "name": "",
          "type": "string"
        }
      ],
      "stateMutability": "view",
      "type": "function",
      "constant": true
    },
    {
      "inputs": [],
      "name": "name",
      "outputs": [
        {
          "internalType": "string",
          "name": "",
          "type": "string"
        }
      ],
      "stateMutability": "view",
      "type": "function",
      "constant": true
    },
    {
      "inputs": [
        {
          "internalType": "uint256",
          "name": "_tokenId",
          "type": "uint256"
        }
      ],
      "name": "ownerOf",
      "outputs": [
        {
          "internalType": "address",
          "name": "",
          "type": "address"
        }
      ],
      "stateMutability": "view",
      "type": "function",
      "constant": true
    },
    {
      "inputs": [],
      "name": "symbol",
      "outputs": [
        {
          "internalType": "string",
          "name": "",
          "type": "string"
        }
      ],
      "stateMutability": "view",
      "type": "function",
      "constant": true
    },
    {
      "inputs": [
        {
          "internalType": "uint256",
          "name": "_index",
          "type": "uint256"
        }
      ],
      "name": "tokenByIndex",
      "outputs": [
        {
          "internalType": "uint256",
          "name": "",
          "type": "uint256"
        }
      ],
      "stateMutability": "view",
      "type": "function",
      "constant": true
    },
    {
      "inputs": [
        {
          "internalType": "uint256",
          "name": "_index",
          "type": "uint256"
        }
      ],
      "name": "tokenOfOwnerByIndex",
      "outputs": [
        {
          "internalType": "uint256",
          "name": "",
          "type": "uint256"
        }
      ],
      "stateMutability": "view",
      "type": "function",
      "constant": true
    },
    {
      "inputs": [],
      "name": "totalSupply",
      "outputs": [
        {
          "internalType": "uint256",
          "name": "",
          "type": "uint256"
        }
      ],
      "stateMutability": "view",
      "type": "function",
      "constant": true
    },
    {
      "inputs": [
        {
          "internalType": "string",
          "name": "_kryptoBird",
          "type": "string"
        }
      ],
      "name": "mint",
      "outputs": [],
      "stateMutability": "nonpayable",
      "type": "function"
    }
  ],
  "bytecode": "0x60806040523480156200001157600080fd5b506040518060400160405280600a81526020017f4b727970746f42697264000000000000000000000000000000000000000000008152506040518060400160405280600681526020017f4b424952445a00000000000000000000000000000000000000000000000000008152508181816000908162000091919062000328565b508060019081620000a3919062000328565b50505050506200040f565b600081519050919050565b7f4e487b7100000000000000000000000000000000000000000000000000000000600052604160045260246000fd5b7f4e487b7100000000000000000000000000000000000000000000000000000000600052602260045260246000fd5b600060028204905060018216806200013057607f821691505b602082108103620001465762000145620000e8565b5b50919050565b60008190508160005260206000209050919050565b60006020601f8301049050919050565b600082821b905092915050565b600060088302620001b07fffffffffffffffffffffffffffffffffffffffffffffffffffffffffffffffff8262000171565b620001bc868362000171565b95508019841693508086168417925050509392505050565b6000819050919050565b6000819050919050565b60006200020962000203620001fd84620001d4565b620001de565b620001d4565b9050919050565b6000819050919050565b6200022583620001e8565b6200023d620002348262000210565b8484546200017e565b825550505050565b600090565b6200025462000245565b620002618184846200021a565b505050565b5b8181101562000289576200027d6000826200024a565b60018101905062000267565b5050565b601f821115620002d857620002a2816200014c565b620002ad8462000161565b81016020851015620002bd578190505b620002d5620002cc8562000161565b83018262000266565b50505b505050565b600082821c905092915050565b6000620002fd60001984600802620002dd565b1980831691505092915050565b6000620003188383620002ea565b9150826002028217905092915050565b6200033382620000ae565b67ffffffffffffffff8111156200034f576200034e620000b9565b5b6200035b825462000117565b620003688282856200028d565b600060209050601f831160018114620003a057600084156200038b578287015190505b6200039785826200030a565b86555062000407565b601f198416620003b0866200014c565b60005b82811015620003da57848901518255600182019150602085019450602081019050620003b3565b86831015620003fa5784890151620003f6601f891682620002ea565b8355505b6001600288020188555050505b505050505050565b6112fb806200041f6000396000f3fe608060405234801561001057600080fd5b50600436106100935760003560e01c80636352211e116100665780636352211e1461013457806370a082311461016457806393ab6e561461019457806395d89b41146101c4578063d85d3d27146101e257610093565b806306fdde031461009857806318160ddd146100b65780634245f3da146100d45780634f6ccce714610104575b600080fd5b6100a06101fe565b6040516100ad9190610953565b60405180910390f35b6100be610290565b6040516100cb919061098e565b60405180910390f35b6100ee60048036038101906100e991906109e9565b61029d565b6040516100fb919061098e565b60405180910390f35b61011e600480360381019061011991906109e9565b6102a4565b60405161012b919061098e565b60405180910390f35b61014e600480360381019061014991906109e9565b6102ab565b60405161015b9190610a57565b60405180910390f35b61017e60048036038101906101799190610a9e565b61035c565b60405161018b919061098e565b60405180910390f35b6101ae60048036038101906101a991906109e9565b610413565b6040516101bb9190610953565b60405180910390f35b6101cc6104bf565b6040516101d99190610953565b60405180910390f35b6101fc60048036038101906101f79190610c00565b610551565b005b60606000805461020d90610c78565b80601f016020809104026020016040519081016040528092919081815260200182805461023990610c78565b80156102865780601f1061025b57610100808354040283529160200191610286565b820191906000526020600020905b81548152906001019060200180831161026957829003601f168201915b5050505050905090565b6000600480549050905090565b6000919050565b6000919050565b6000806002600084815260200190815260200160002060009054906101000a900473ffffffffffffffffffffffffffffffffffffffff169050600073ffffffffffffffffffffffffffffffffffffffff168173ffffffffffffffffffffffffffffffffffffffff1603610353576040517f08c379a000000000000000000000000000000000000000000000000000000000815260040161034a90610d1b565b60405180910390fd5b80915050919050565b60008073ffffffffffffffffffffffffffffffffffffffff168273ffffffffffffffffffffffffffffffffffffffff16036103cc576040517f08c379a00000000000000000000000000000000000000000000000000000000081526004016103c390610dad565b60405180910390fd5b600360008373ffffffffffffffffffffffffffffffffffffffff1673ffffffffffffffffffffffffffffffffffffffff168152602001908152602001600020549050919050565b6008818154811061042357600080fd5b90600052602060002001600091509050805461043e90610c78565b80601f016020809104026020016040519081016040528092919081815260200182805461046a90610c78565b80156104b75780601f1061048c576101008083540402835291602001916104b7565b820191906000526020600020905b81548152906001019060200180831161049a57829003601f168201915b505050505081565b6060600180546104ce90610c78565b80601f01602080910402602001604051908101604052809291908181526020018280546104fa90610c78565b80156105475780601f1061051c57610100808354040283529160200191610547565b820191906000526020600020905b81548152906001019060200180831161052a57829003601f168201915b5050505050905090565b6009816040516105619190610e09565b908152602001604051809103902060009054906101000a900460ff16156105bd576040517f08c379a00000000000000000000000000000000000000000000000000000000081526004016105b490610e92565b60405180910390fd5b6008819080600181540180825580915050600190039060005260206000200160009091909190915090816105f1919061105e565b5060006001600880549050610606919061115f565b9050610612338261064d565b60016009836040516106249190610e09565b908152602001604051809103902060006101000a81548160ff0219169083151502179055505050565b6106578282610664565b61066081610825565b5050565b600073ffffffffffffffffffffffffffffffffffffffff168273ffffffffffffffffffffffffffffffffffffffff16036106d3576040517f08c379a00000000000000000000000000000000000000000000000000000000081526004016106ca90611205565b60405180910390fd5b6106dc81610851565b1561071c576040517f08c379a000000000000000000000000000000000000000000000000000000000815260040161071390611271565b60405180910390fd5b816002600083815260200190815260200160002060006101000a81548173ffffffffffffffffffffffffffffffffffffffff021916908373ffffffffffffffffffffffffffffffffffffffff1602179055506001600360008473ffffffffffffffffffffffffffffffffffffffff1673ffffffffffffffffffffffffffffffffffffffff16815260200190815260200160002060008282546107be9190611291565b92505081905550808273ffffffffffffffffffffffffffffffffffffffff16600073ffffffffffffffffffffffffffffffffffffffff167fddf252ad1be2c89b69c2b068fc378daa952ba7f163c4a11628f55a4df523b3ef60405160405180910390a45050565b600481908060018154018082558091505060019003906000526020600020016000909190919091505550565b6000806002600084815260200190815260200160002060009054906101000a900473ffffffffffffffffffffffffffffffffffffffff169050600073ffffffffffffffffffffffffffffffffffffffff168173ffffffffffffffffffffffffffffffffffffffff161415915050919050565b600081519050919050565b600082825260208201905092915050565b60005b838110156108fd5780820151818401526020810190506108e2565b60008484015250505050565b6000601f19601f8301169050919050565b6000610925826108c3565b61092f81856108ce565b935061093f8185602086016108df565b61094881610909565b840191505092915050565b6000602082019050818103600083015261096d818461091a565b905092915050565b6000819050919050565b61098881610975565b82525050565b60006020820190506109a3600083018461097f565b92915050565b6000604051905090565b600080fd5b600080fd5b6109c681610975565b81146109d157600080fd5b50565b6000813590506109e3816109bd565b92915050565b6000602082840312156109ff576109fe6109b3565b5b6000610a0d848285016109d4565b91505092915050565b600073ffffffffffffffffffffffffffffffffffffffff82169050919050565b6000610a4182610a16565b9050919050565b610a5181610a36565b82525050565b6000602082019050610a6c6000830184610a48565b92915050565b610a7b81610a36565b8114610a8657600080fd5b50565b600081359050610a9881610a72565b92915050565b600060208284031215610ab457610ab36109b3565b5b6000610ac284828501610a89565b91505092915050565b600080fd5b600080fd5b7f4e487b7100000000000000000000000000000000000000000000000000000000600052604160045260246000fd5b610b0d82610909565b810181811067ffffffffffffffff82111715610b2c57610b2b610ad5565b5b80604052505050565b6000610b3f6109a9565b9050610b4b8282610b04565b919050565b600067ffffffffffffffff821115610b6b57610b6a610ad5565b5b610b7482610909565b9050602081019050919050565b82818337600083830152505050565b6000610ba3610b9e84610b50565b610b35565b905082815260208101848484011115610bbf57610bbe610ad0565b5b610bca848285610b81565b509392505050565b600082601f830112610be757610be6610acb565b5b8135610bf7848260208601610b90565b91505092915050565b600060208284031215610c1657610c156109b3565b5b600082013567ffffffffffffffff811115610c3457610c336109b8565b5b610c4084828501610bd2565b91505092915050565b7f4e487b7100000000000000000000000000000000000000000000000000000000600052602260045260246000fd5b60006002820490506001821680610c9057607f821691505b602082108103610ca357610ca2610c49565b5b50919050565b7f4552433732313a206f776e65724f6620746f20746865207a65726f206164647260008201527f6573730000000000000000000000000000000000000000000000000000000000602082015250565b6000610d056023836108ce565b9150610d1082610ca9565b604082019050919050565b60006020820190508181036000830152610d3481610cf8565b9050919050565b7f4552433732313a2062616c616e63654f6620746f20746865207a65726f20616460008201527f6472657373000000000000000000000000000000000000000000000000000000602082015250565b6000610d976025836108ce565b9150610da282610d3b565b604082019050919050565b60006020820190508181036000830152610dc681610d8a565b9050919050565b600081905092915050565b6000610de3826108c3565b610ded8185610dcd565b9350610dfd8185602086016108df565b80840191505092915050565b6000610e158284610dd8565b915081905092915050565b7f4572726f72202d206b727970746f4269726420616c726561647920657869737460008201527f7300000000000000000000000000000000000000000000000000000000000000602082015250565b6000610e7c6021836108ce565b9150610e8782610e20565b604082019050919050565b60006020820190508181036000830152610eab81610e6f565b9050919050565b60008190508160005260206000209050919050565b60006020601f8301049050919050565b600082821b905092915050565b600060088302610f147fffffffffffffffffffffffffffffffffffffffffffffffffffffffffffffffff82610ed7565b610f1e8683610ed7565b95508019841693508086168417925050509392505050565b6000819050919050565b6000610f5b610f56610f5184610975565b610f36565b610975565b9050919050565b6000819050919050565b610f7583610f40565b610f89610f8182610f62565b848454610ee4565b825550505050565b600090565b610f9e610f91565b610fa9818484610f6c565b505050565b5b81811015610fcd57610fc2600082610f96565b600181019050610faf565b5050565b601f82111561101257610fe381610eb2565b610fec84610ec7565b81016020851015610ffb578190505b61100f61100785610ec7565b830182610fae565b50505b505050565b600082821c905092915050565b600061103560001984600802611017565b1980831691505092915050565b600061104e8383611024565b9150826002028217905092915050565b611067826108c3565b67ffffffffffffffff8111156110805761107f610ad5565b5b61108a8254610c78565b611095828285610fd1565b600060209050601f8311600181146110c857600084156110b6578287015190505b6110c08582611042565b865550611128565b601f1984166110d686610eb2565b60005b828110156110fe578489015182556001820191506020850194506020810190506110d9565b8683101561111b5784890151611117601f891682611024565b8355505b6001600288020188555050505b505050505050565b7f4e487b7100000000000000000000000000000000000000000000000000000000600052601160045260246000fd5b600061116a82610975565b915061117583610975565b925082820390508181111561118d5761118c611130565b5b92915050565b7f4552433732313a206d696e74696e6720746f20746865207a65726f206164647260008201527f6573730000000000000000000000000000000000000000000000000000000000602082015250565b60006111ef6023836108ce565b91506111fa82611193565b604082019050919050565b6000602082019050818103600083015261121e816111e2565b9050919050565b7f4552433732313a20746f6b656e20616c7265616479206d696e74656400000000600082015250565b600061125b601c836108ce565b915061126682611225565b602082019050919050565b6000602082019050818103600083015261128a8161124e565b9050919050565b600061129c82610975565b91506112a783610975565b92508282019050808211156112bf576112be611130565b5b9291505056fea2646970667358221220ae4ecb63331979f0a5ab4a21f4d623bfc78071e058ee1c37a4a205cdcafa66a264736f6c63430008100033",
  "immutableReferences": {},
  "source": "// SPDX-License-Identifier: MIT\npragma solidity ^0.8.0;\n\nimport \"./ERC721Connector.sol\";\n\ncontract KryptoBird is ERC721Connector {\n\n    // array to store our nfts\n    string [] public kryptoBirdz;\n\n    // keep track of kryptobirdz minted\n    mapping(string => bool) _kryptoBirdzExists;\n\n    constructor() \n        ERC721Connector(\"KryptoBird\", \"KBIRDZ\") {}\n\n    function mint(string memory _kryptoBird) public {\n        require(!_kryptoBirdzExists[_kryptoBird],\n        'Error - kryptoBird already exists');\n        \n        // add a kryptobird into our list of kryptobirdz\n        kryptoBirdz.push(_kryptoBird);\n\n        uint _id = kryptoBirdz.length - 1;\n\n        _mint(msg.sender, _id);\n\n        _kryptoBirdzExists[_kryptoBird] = true;\n    }\n}",
  "sourcePath": "/Users/diracmurairi/Documents/projects/nft-marketplace/src/contracts/KryptoBirdz.sol",
  "compiler": {
    "name": "solc",
    "version": "0.8.16+commit.07a7930e.Emscripten.clang"
  },
  "schemaVersion": "3.4.9",
  "updatedAt": "2022-08-18T23:01:14.880Z",
  "networkType": "ethereum",
  "devdoc": {
    "kind": "dev",
    "methods": {
      "balanceOf(address)": {
        "details": "NFTs assigned to the zero address are considered invalid, and function throws for queries abount the zero address.",
        "params": {
          "_owner": "Address for whom to query the balance"
        },
        "returns": {
          "_0": "uint256 The number of NFTs owned by _owner possib;u zero. "
        }
      },
      "ownerOf(uint256)": {
        "details": "NFTs assigned to zero address are considered invalid, and query about then do throw.",
        "params": {
          "_tokenId": "the id ok the nft we want to check."
        },
        "returns": {
          "_0": "address owner of the token"
        }
      },
      "tokenByIndex(uint256)": {
        "details": "throws if `_index` >= `totalSupply()`.",
        "params": {
          "_index": "A counter less than `totoalSupply`"
        },
        "returns": {
          "_0": "uint256 The token identifier for the `_index`th NFT, (sort order not specified)"
        }
      },
      "totalSupply()": {
        "returns": {
          "_0": "uint256 A count of valid NFTs tracked by this contract,"
        }
      }
    },
    "version": 1
  },
  "userdoc": {
    "kind": "user",
    "methods": {
      "balanceOf(address)": {
        "notice": "Count all NFTs assigned to an owner"
      },
      "ownerOf(uint256)": {
        "notice": "Find the owner of an NFT"
      },
      "tokenByIndex(uint256)": {
        "notice": "Enumerate valid NFTs"
      },
      "totalSupply()": {
        "notice": "count NFTs tracked by thus contract"
      }
    },
    "version": 1
  }
}