{
  "contractName": "KryptoBird",
  "abi": [
    {
      "inputs": [],
      "stateMutability": "nonpayable",
      "type": "constructor"
    },
    {
      "anonymous": false,
      "inputs": [
        {
          "indexed": true,
          "internalType": "address",
          "name": "from",
          "type": "address"
        },
        {
          "indexed": true,
          "internalType": "address",
          "name": "to",
          "type": "address"
        },
        {
          "indexed": true,
          "internalType": "uint256",
          "name": "tokenId",
          "type": "uint256"
        }
      ],
      "name": "Transfer",
      "type": "event"
    },
    {
      "inputs": [
        {
          "internalType": "address",
          "name": "_owner",
          "type": "address"
        }
      ],
      "name": "balanceOf",
      "outputs": [
        {
          "internalType": "uint256",
          "name": "",
          "type": "uint256"
        }
      ],
      "stateMutability": "view",
      "type": "function",
      "constant": true
    },
    {
      "inputs": [
        {
          "internalType": "uint256",
          "name": "",
          "type": "uint256"
        }
      ],
      "name": "kryptoBirdz",
      "outputs": [
        {
          "internalType": "string",
          "name": "",
          "type": "string"
        }
      ],
      "stateMutability": "view",
      "type": "function",
      "constant": true
    },
    {
      "inputs": [],
      "name": "name",
      "outputs": [
        {
          "internalType": "string",
          "name": "",
          "type": "string"
        }
      ],
      "stateMutability": "view",
      "type": "function",
      "constant": true
    },
    {
      "inputs": [
        {
          "internalType": "uint256",
          "name": "_tokenId",
          "type": "uint256"
        }
      ],
      "name": "ownerOf",
      "outputs": [
        {
          "internalType": "address",
          "name": "",
          "type": "address"
        }
      ],
      "stateMutability": "view",
      "type": "function",
      "constant": true
    },
    {
      "inputs": [],
      "name": "symbol",
      "outputs": [
        {
          "internalType": "string",
          "name": "",
          "type": "string"
        }
      ],
      "stateMutability": "view",
      "type": "function",
      "constant": true
    },
    {
      "inputs": [
        {
          "internalType": "uint256",
          "name": "index",
          "type": "uint256"
        }
      ],
      "name": "tokenByIndex",
      "outputs": [
        {
          "internalType": "uint256",
          "name": "",
          "type": "uint256"
        }
      ],
      "stateMutability": "view",
      "type": "function",
      "constant": true
    },
    {
      "inputs": [
        {
          "internalType": "address",
          "name": "owner",
          "type": "address"
        },
        {
          "internalType": "uint256",
          "name": "index",
          "type": "uint256"
        }
      ],
      "name": "tokenOfOwnerByIndex",
      "outputs": [
        {
          "internalType": "uint256",
          "name": "",
          "type": "uint256"
        }
      ],
      "stateMutability": "view",
      "type": "function",
      "constant": true
    },
    {
      "inputs": [],
      "name": "totalSupply",
      "outputs": [
        {
          "internalType": "uint256",
          "name": "",
          "type": "uint256"
        }
      ],
      "stateMutability": "view",
      "type": "function",
      "constant": true
    },
    {
      "inputs": [
        {
          "internalType": "string",
          "name": "_kryptoBird",
          "type": "string"
        }
      ],
      "name": "mint",
      "outputs": [],
      "stateMutability": "nonpayable",
      "type": "function"
    }
  ],
  "bytecode": "0x60806040523480156200001157600080fd5b506040518060400160405280600a81526020017f4b727970746f42697264000000000000000000000000000000000000000000008152506040518060400160405280600681526020017f4b424952445a00000000000000000000000000000000000000000000000000008152508181816000908162000091919062000328565b508060019081620000a3919062000328565b50505050506200040f565b600081519050919050565b7f4e487b7100000000000000000000000000000000000000000000000000000000600052604160045260246000fd5b7f4e487b7100000000000000000000000000000000000000000000000000000000600052602260045260246000fd5b600060028204905060018216806200013057607f821691505b602082108103620001465762000145620000e8565b5b50919050565b60008190508160005260206000209050919050565b60006020601f8301049050919050565b600082821b905092915050565b600060088302620001b07fffffffffffffffffffffffffffffffffffffffffffffffffffffffffffffffff8262000171565b620001bc868362000171565b95508019841693508086168417925050509392505050565b6000819050919050565b6000819050919050565b60006200020962000203620001fd84620001d4565b620001de565b620001d4565b9050919050565b6000819050919050565b6200022583620001e8565b6200023d620002348262000210565b8484546200017e565b825550505050565b600090565b6200025462000245565b620002618184846200021a565b505050565b5b8181101562000289576200027d6000826200024a565b60018101905062000267565b5050565b601f821115620002d857620002a2816200014c565b620002ad8462000161565b81016020851015620002bd578190505b620002d5620002cc8562000161565b83018262000266565b50505b505050565b600082821c905092915050565b6000620002fd60001984600802620002dd565b1980831691505092915050565b6000620003188383620002ea565b9150826002028217905092915050565b6200033382620000ae565b67ffffffffffffffff8111156200034f576200034e620000b9565b5b6200035b825462000117565b620003688282856200028d565b600060209050601f831160018114620003a057600084156200038b578287015190505b6200039785826200030a565b86555062000407565b601f198416620003b0866200014c565b60005b82811015620003da57848901518255600182019150602085019450602081019050620003b3565b86831015620003fa5784890151620003f6601f891682620002ea565b8355505b6001600288020188555050505b505050505050565b611640806200041f6000396000f3fe608060405234801561001057600080fd5b50600436106100935760003560e01c80636352211e116100665780636352211e1461013457806370a082311461016457806393ab6e561461019457806395d89b41146101c4578063d85d3d27146101e257610093565b806306fdde031461009857806318160ddd146100b65780632f745c59146100d45780634f6ccce714610104575b600080fd5b6100a06101fe565b6040516100ad9190610b51565b60405180910390f35b6100be610290565b6040516100cb9190610b8c565b60405180910390f35b6100ee60048036038101906100e99190610c45565b61029d565b6040516100fb9190610b8c565b60405180910390f35b61011e60048036038101906101199190610c85565b61034d565b60405161012b9190610b8c565b60405180910390f35b61014e60048036038101906101499190610c85565b6103be565b60405161015b9190610cc1565b60405180910390f35b61017e60048036038101906101799190610cdc565b61046f565b60405161018b9190610b8c565b60405180910390f35b6101ae60048036038101906101a99190610c85565b610526565b6040516101bb9190610b51565b60405180910390f35b6101cc6105d2565b6040516101d99190610b51565b60405180910390f35b6101fc60048036038101906101f79190610e3e565b610664565b005b60606000805461020d90610eb6565b80601f016020809104026020016040519081016040528092919081815260200182805461023990610eb6565b80156102865780601f1061025b57610100808354040283529160200191610286565b820191906000526020600020905b81548152906001019060200180831161026957829003601f168201915b5050505050905090565b6000600480549050905090565b60006102a88361046f565b82106102e9576040517f08c379a00000000000000000000000000000000000000000000000000000000081526004016102e090610f33565b60405180910390fd5b600660008473ffffffffffffffffffffffffffffffffffffffff1673ffffffffffffffffffffffffffffffffffffffff168152602001908152602001600020828154811061033a57610339610f53565b5b9060005260206000200154905092915050565b6000610357610290565b8210610398576040517f08c379a000000000000000000000000000000000000000000000000000000000815260040161038f90610fce565b60405180910390fd5b600482815481106103ac576103ab610f53565b5b90600052602060002001549050919050565b6000806002600084815260200190815260200160002060009054906101000a900473ffffffffffffffffffffffffffffffffffffffff169050600073ffffffffffffffffffffffffffffffffffffffff168173ffffffffffffffffffffffffffffffffffffffff1603610466576040517f08c379a000000000000000000000000000000000000000000000000000000000815260040161045d90611060565b60405180910390fd5b80915050919050565b60008073ffffffffffffffffffffffffffffffffffffffff168273ffffffffffffffffffffffffffffffffffffffff16036104df576040517f08c379a00000000000000000000000000000000000000000000000000000000081526004016104d6906110f2565b60405180910390fd5b600360008373ffffffffffffffffffffffffffffffffffffffff1673ffffffffffffffffffffffffffffffffffffffff168152602001908152602001600020549050919050565b6008818154811061053657600080fd5b90600052602060002001600091509050805461055190610eb6565b80601f016020809104026020016040519081016040528092919081815260200182805461057d90610eb6565b80156105ca5780601f1061059f576101008083540402835291602001916105ca565b820191906000526020600020905b8154815290600101906020018083116105ad57829003601f168201915b505050505081565b6060600180546105e190610eb6565b80601f016020809104026020016040519081016040528092919081815260200182805461060d90610eb6565b801561065a5780601f1061062f5761010080835404028352916020019161065a565b820191906000526020600020905b81548152906001019060200180831161063d57829003601f168201915b5050505050905090565b600981604051610674919061114e565b908152602001604051809103902060009054906101000a900460ff16156106d0576040517f08c379a00000000000000000000000000000000000000000000000000000000081526004016106c7906111d7565b60405180910390fd5b60088190806001815401808255809150506001900390600052602060002001600090919091909150908161070491906113a3565b506000600160088054905061071991906114a4565b90506107253382610760565b6001600983604051610737919061114e565b908152602001604051809103902060006101000a81548160ff0219169083151502179055505050565b61076a8282610781565b61077381610942565b61077d828261098b565b5050565b600073ffffffffffffffffffffffffffffffffffffffff168273ffffffffffffffffffffffffffffffffffffffff16036107f0576040517f08c379a00000000000000000000000000000000000000000000000000000000081526004016107e79061154a565b60405180910390fd5b6107f981610a4f565b15610839576040517f08c379a0000000000000000000000000000000000000000000000000000000008152600401610830906115b6565b60405180910390fd5b816002600083815260200190815260200160002060006101000a81548173ffffffffffffffffffffffffffffffffffffffff021916908373ffffffffffffffffffffffffffffffffffffffff1602179055506001600360008473ffffffffffffffffffffffffffffffffffffffff1673ffffffffffffffffffffffffffffffffffffffff16815260200190815260200160002060008282546108db91906115d6565b92505081905550808273ffffffffffffffffffffffffffffffffffffffff16600073ffffffffffffffffffffffffffffffffffffffff167fddf252ad1be2c89b69c2b068fc378daa952ba7f163c4a11628f55a4df523b3ef60405160405180910390a45050565b6004805490506005600083815260200190815260200160002081905550600481908060018154018082558091505060019003906000526020600020016000909190919091505550565b600660008373ffffffffffffffffffffffffffffffffffffffff1673ffffffffffffffffffffffffffffffffffffffff168152602001908152602001600020805490506007600083815260200190815260200160002081905550600660008373ffffffffffffffffffffffffffffffffffffffff1673ffffffffffffffffffffffffffffffffffffffff1681526020019081526020016000208190806001815401808255809150506001900390600052602060002001600090919091909150555050565b6000806002600084815260200190815260200160002060009054906101000a900473ffffffffffffffffffffffffffffffffffffffff169050600073ffffffffffffffffffffffffffffffffffffffff168173ffffffffffffffffffffffffffffffffffffffff161415915050919050565b600081519050919050565b600082825260208201905092915050565b60005b83811015610afb578082015181840152602081019050610ae0565b60008484015250505050565b6000601f19601f8301169050919050565b6000610b2382610ac1565b610b2d8185610acc565b9350610b3d818560208601610add565b610b4681610b07565b840191505092915050565b60006020820190508181036000830152610b6b8184610b18565b905092915050565b6000819050919050565b610b8681610b73565b82525050565b6000602082019050610ba16000830184610b7d565b92915050565b6000604051905090565b600080fd5b600080fd5b600073ffffffffffffffffffffffffffffffffffffffff82169050919050565b6000610be682610bbb565b9050919050565b610bf681610bdb565b8114610c0157600080fd5b50565b600081359050610c1381610bed565b92915050565b610c2281610b73565b8114610c2d57600080fd5b50565b600081359050610c3f81610c19565b92915050565b60008060408385031215610c5c57610c5b610bb1565b5b6000610c6a85828601610c04565b9250506020610c7b85828601610c30565b9150509250929050565b600060208284031215610c9b57610c9a610bb1565b5b6000610ca984828501610c30565b91505092915050565b610cbb81610bdb565b82525050565b6000602082019050610cd66000830184610cb2565b92915050565b600060208284031215610cf257610cf1610bb1565b5b6000610d0084828501610c04565b91505092915050565b600080fd5b600080fd5b7f4e487b7100000000000000000000000000000000000000000000000000000000600052604160045260246000fd5b610d4b82610b07565b810181811067ffffffffffffffff82111715610d6a57610d69610d13565b5b80604052505050565b6000610d7d610ba7565b9050610d898282610d42565b919050565b600067ffffffffffffffff821115610da957610da8610d13565b5b610db282610b07565b9050602081019050919050565b82818337600083830152505050565b6000610de1610ddc84610d8e565b610d73565b905082815260208101848484011115610dfd57610dfc610d0e565b5b610e08848285610dbf565b509392505050565b600082601f830112610e2557610e24610d09565b5b8135610e35848260208601610dce565b91505092915050565b600060208284031215610e5457610e53610bb1565b5b600082013567ffffffffffffffff811115610e7257610e71610bb6565b5b610e7e84828501610e10565b91505092915050565b7f4e487b7100000000000000000000000000000000000000000000000000000000600052602260045260246000fd5b60006002820490506001821680610ece57607f821691505b602082108103610ee157610ee0610e87565b5b50919050565b7f6f776e657220696e646578206973206f7574206f6620626f756e647300000000600082015250565b6000610f1d601c83610acc565b9150610f2882610ee7565b602082019050919050565b60006020820190508181036000830152610f4c81610f10565b9050919050565b7f4e487b7100000000000000000000000000000000000000000000000000000000600052603260045260246000fd5b7f676c6f62616c20696e646578206973206f7574206f6620626f756e6473000000600082015250565b6000610fb8601d83610acc565b9150610fc382610f82565b602082019050919050565b60006020820190508181036000830152610fe781610fab565b9050919050565b7f4552433732313a206f776e65724f6620746f20746865207a65726f206164647260008201527f6573730000000000000000000000000000000000000000000000000000000000602082015250565b600061104a602383610acc565b915061105582610fee565b604082019050919050565b600060208201905081810360008301526110798161103d565b9050919050565b7f4552433732313a2062616c616e63654f6620746f20746865207a65726f20616460008201527f6472657373000000000000000000000000000000000000000000000000000000602082015250565b60006110dc602583610acc565b91506110e782611080565b604082019050919050565b6000602082019050818103600083015261110b816110cf565b9050919050565b600081905092915050565b600061112882610ac1565b6111328185611112565b9350611142818560208601610add565b80840191505092915050565b600061115a828461111d565b915081905092915050565b7f4572726f72202d206b727970746f4269726420616c726561647920657869737460008201527f7300000000000000000000000000000000000000000000000000000000000000602082015250565b60006111c1602183610acc565b91506111cc82611165565b604082019050919050565b600060208201905081810360008301526111f0816111b4565b9050919050565b60008190508160005260206000209050919050565b60006020601f8301049050919050565b600082821b905092915050565b6000600883026112597fffffffffffffffffffffffffffffffffffffffffffffffffffffffffffffffff8261121c565b611263868361121c565b95508019841693508086168417925050509392505050565b6000819050919050565b60006112a061129b61129684610b73565b61127b565b610b73565b9050919050565b6000819050919050565b6112ba83611285565b6112ce6112c6826112a7565b848454611229565b825550505050565b600090565b6112e36112d6565b6112ee8184846112b1565b505050565b5b81811015611312576113076000826112db565b6001810190506112f4565b5050565b601f82111561135757611328816111f7565b6113318461120c565b81016020851015611340578190505b61135461134c8561120c565b8301826112f3565b50505b505050565b600082821c905092915050565b600061137a6000198460080261135c565b1980831691505092915050565b60006113938383611369565b9150826002028217905092915050565b6113ac82610ac1565b67ffffffffffffffff8111156113c5576113c4610d13565b5b6113cf8254610eb6565b6113da828285611316565b600060209050601f83116001811461140d57600084156113fb578287015190505b6114058582611387565b86555061146d565b601f19841661141b866111f7565b60005b828110156114435784890151825560018201915060208501945060208101905061141e565b86831015611460578489015161145c601f891682611369565b8355505b6001600288020188555050505b505050505050565b7f4e487b7100000000000000000000000000000000000000000000000000000000600052601160045260246000fd5b60006114af82610b73565b91506114ba83610b73565b92508282039050818111156114d2576114d1611475565b5b92915050565b7f4552433732313a206d696e74696e6720746f20746865207a65726f206164647260008201527f6573730000000000000000000000000000000000000000000000000000000000602082015250565b6000611534602383610acc565b915061153f826114d8565b604082019050919050565b6000602082019050818103600083015261156381611527565b9050919050565b7f4552433732313a20746f6b656e20616c7265616479206d696e74656400000000600082015250565b60006115a0601c83610acc565b91506115ab8261156a565b602082019050919050565b600060208201905081810360008301526115cf81611593565b9050919050565b60006115e182610b73565b91506115ec83610b73565b925082820190508082111561160457611603611475565b5b9291505056fea26469706673582212203fe27eb41269f500f1304c6742c2444a8aef6af1a4a996af7f03e6ccbf62ebfa64736f6c63430008100033",
  "immutableReferences": {},
  "source": "// SPDX-License-Identifier: MIT\npragma solidity ^0.8.0;\n\nimport \"./ERC721Connector.sol\";\n\ncontract KryptoBird is ERC721Connector {\n\n    // array to store our nfts\n    string [] public kryptoBirdz;\n\n    // keep track of kryptobirdz minted\n    mapping(string => bool) _kryptoBirdzExists;\n\n    constructor() \n        ERC721Connector(\"KryptoBird\", \"KBIRDZ\") {}\n\n    function mint(string memory _kryptoBird) public {\n        require(!_kryptoBirdzExists[_kryptoBird],\n        'Error - kryptoBird already exists');\n        \n        // add a kryptobird into our list of kryptobirdz\n        kryptoBirdz.push(_kryptoBird);\n\n        uint _id = kryptoBirdz.length - 1;\n\n        _mint(msg.sender, _id);\n\n        _kryptoBirdzExists[_kryptoBird] = true;\n    }\n}",
  "sourcePath": "/Users/diracmurairi/Documents/projects/nft-marketplace/src/contracts/KryptoBirdz.sol",
  "compiler": {
    "name": "solc",
    "version": "0.8.16+commit.07a7930e.Emscripten.clang"
  },
  "schemaVersion": "3.4.9",
  "updatedAt": "2022-08-18T23:34:34.960Z",
  "networkType": "ethereum",
  "devdoc": {
    "kind": "dev",
    "methods": {
      "balanceOf(address)": {
        "details": "NFTs assigned to the zero address are considered invalid, and function throws for queries abount the zero address.",
        "params": {
          "_owner": "Address for whom to query the balance"
        },
        "returns": {
          "_0": "uint256 The number of NFTs owned by _owner possib;u zero. "
        }
      },
      "ownerOf(uint256)": {
        "details": "NFTs assigned to zero address are considered invalid, and query about then do throw.",
        "params": {
          "_tokenId": "the id ok the nft we want to check."
        },
        "returns": {
          "_0": "address owner of the token"
        }
      },
      "tokenByIndex(uint256)": {
        "details": "throws if `index` >= `totalSupply()`.",
        "params": {
          "index": "A counter less than `totoalSupply`"
        },
        "returns": {
          "_0": "uint256 The token identifier for the `_index`th NFT, (sort order not specified)"
        }
      },
      "totalSupply()": {
        "returns": {
          "_0": "uint256 A count of valid NFTs tracked by this contract,"
        }
      }
    },
    "version": 1
  },
  "userdoc": {
    "kind": "user",
    "methods": {
      "balanceOf(address)": {
        "notice": "Count all NFTs assigned to an owner"
      },
      "ownerOf(uint256)": {
        "notice": "Find the owner of an NFT"
      },
      "tokenByIndex(uint256)": {
        "notice": "Enumerate valid NFTs"
      },
      "totalSupply()": {
        "notice": "count NFTs tracked by thus contract"
      }
    },
    "version": 1
  }
}