{
  "contractName": "KryptoBird",
  "abi": [
    {
      "inputs": [],
      "stateMutability": "nonpayable",
      "type": "constructor"
    },
    {
      "anonymous": false,
      "inputs": [
        {
          "indexed": true,
          "internalType": "address",
          "name": "_owner",
          "type": "address"
        },
        {
          "indexed": true,
          "internalType": "address",
          "name": "_approved",
          "type": "address"
        },
        {
          "indexed": true,
          "internalType": "uint256",
          "name": "_tokenId",
          "type": "uint256"
        }
      ],
      "name": "Approval",
      "type": "event"
    },
    {
      "anonymous": false,
      "inputs": [
        {
          "indexed": true,
          "internalType": "address",
          "name": "_from",
          "type": "address"
        },
        {
          "indexed": true,
          "internalType": "address",
          "name": "_to",
          "type": "address"
        },
        {
          "indexed": true,
          "internalType": "uint256",
          "name": "_tokenId",
          "type": "uint256"
        }
      ],
      "name": "Transfer",
      "type": "event"
    },
    {
      "inputs": [
        {
          "internalType": "address",
          "name": "_from",
          "type": "address"
        },
        {
          "internalType": "address",
          "name": "_to",
          "type": "address"
        },
        {
          "internalType": "uint256",
          "name": "_tokenId",
          "type": "uint256"
        }
      ],
      "name": "_transferFrom",
      "outputs": [],
      "stateMutability": "nonpayable",
      "type": "function"
    },
    {
      "inputs": [
        {
          "internalType": "address",
          "name": "_to",
          "type": "address"
        },
        {
          "internalType": "uint256",
          "name": "_tokenId",
          "type": "uint256"
        }
      ],
      "name": "approveTransfer",
      "outputs": [],
      "stateMutability": "nonpayable",
      "type": "function"
    },
    {
      "inputs": [
        {
          "internalType": "address",
          "name": "_owner",
          "type": "address"
        }
      ],
      "name": "balanceOf",
      "outputs": [
        {
          "internalType": "uint256",
          "name": "",
          "type": "uint256"
        }
      ],
      "stateMutability": "view",
      "type": "function"
    },
    {
      "inputs": [
        {
          "internalType": "uint256",
          "name": "",
          "type": "uint256"
        }
      ],
      "name": "kryptoBirdz",
      "outputs": [
        {
          "internalType": "string",
          "name": "",
          "type": "string"
        }
      ],
      "stateMutability": "view",
      "type": "function"
    },
    {
      "inputs": [],
      "name": "name",
      "outputs": [
        {
          "internalType": "string",
          "name": "",
          "type": "string"
        }
      ],
      "stateMutability": "view",
      "type": "function"
    },
    {
      "inputs": [
        {
          "internalType": "uint256",
          "name": "_tokenId",
          "type": "uint256"
        }
      ],
      "name": "ownerOf",
      "outputs": [
        {
          "internalType": "address",
          "name": "",
          "type": "address"
        }
      ],
      "stateMutability": "view",
      "type": "function"
    },
    {
      "inputs": [
        {
          "internalType": "bytes4",
          "name": "interfaceID",
          "type": "bytes4"
        }
      ],
      "name": "supportsInterface",
      "outputs": [
        {
          "internalType": "bool",
          "name": "",
          "type": "bool"
        }
      ],
      "stateMutability": "view",
      "type": "function"
    },
    {
      "inputs": [],
      "name": "symbol",
      "outputs": [
        {
          "internalType": "string",
          "name": "",
          "type": "string"
        }
      ],
      "stateMutability": "view",
      "type": "function"
    },
    {
      "inputs": [
        {
          "internalType": "uint256",
          "name": "index",
          "type": "uint256"
        }
      ],
      "name": "tokenByIndex",
      "outputs": [
        {
          "internalType": "uint256",
          "name": "",
          "type": "uint256"
        }
      ],
      "stateMutability": "view",
      "type": "function"
    },
    {
      "inputs": [
        {
          "internalType": "address",
          "name": "owner",
          "type": "address"
        },
        {
          "internalType": "uint256",
          "name": "index",
          "type": "uint256"
        }
      ],
      "name": "tokenOfOwnerByIndex",
      "outputs": [
        {
          "internalType": "uint256",
          "name": "",
          "type": "uint256"
        }
      ],
      "stateMutability": "view",
      "type": "function"
    },
    {
      "inputs": [],
      "name": "totalSupply",
      "outputs": [
        {
          "internalType": "uint256",
          "name": "",
          "type": "uint256"
        }
      ],
      "stateMutability": "view",
      "type": "function"
    },
    {
      "inputs": [
        {
          "internalType": "address",
          "name": "_from",
          "type": "address"
        },
        {
          "internalType": "address",
          "name": "_to",
          "type": "address"
        },
        {
          "internalType": "uint256",
          "name": "_tokenId",
          "type": "uint256"
        }
      ],
      "name": "transferFrom",
      "outputs": [],
      "stateMutability": "nonpayable",
      "type": "function"
    },
    {
      "inputs": [
        {
          "internalType": "string",
          "name": "_kryptoBird",
          "type": "string"
        }
      ],
      "name": "mint",
      "outputs": [],
      "stateMutability": "nonpayable",
      "type": "function"
    }
  ],
  "bytecode": "0x60806040523480156200001157600080fd5b506040518060400160405280600a81526020017f4b727970746f42697264000000000000000000000000000000000000000000008152506040518060400160405280600681526020017f4b424952445a00000000000000000000000000000000000000000000000000008152508181816000908162000091919062000431565b508060019081620000a3919062000431565b505050620000d77f01ffc9a7a5cef8baa21ed3c5c0d7e23accb804b619e9333b597f47a0d84076e2620000df60201b60201c565b50506200059b565b63ffffffff60e01b817bffffffffffffffffffffffffffffffffffffffffffffffffffffffff1916036200014a576040517f08c379a0000000000000000000000000000000000000000000000000000000008152600401620001419062000579565b60405180910390fd5b600160026000837bffffffffffffffffffffffffffffffffffffffffffffffffffffffff19167bffffffffffffffffffffffffffffffffffffffffffffffffffffffff1916815260200190815260200160002060006101000a81548160ff02191690831515021790555050565b600081519050919050565b7f4e487b7100000000000000000000000000000000000000000000000000000000600052604160045260246000fd5b7f4e487b7100000000000000000000000000000000000000000000000000000000600052602260045260246000fd5b600060028204905060018216806200023957607f821691505b6020821081036200024f576200024e620001f1565b5b50919050565b60008190508160005260206000209050919050565b60006020601f8301049050919050565b600082821b905092915050565b600060088302620002b97fffffffffffffffffffffffffffffffffffffffffffffffffffffffffffffffff826200027a565b620002c586836200027a565b95508019841693508086168417925050509392505050565b6000819050919050565b6000819050919050565b6000620003126200030c6200030684620002dd565b620002e7565b620002dd565b9050919050565b6000819050919050565b6200032e83620002f1565b620003466200033d8262000319565b84845462000287565b825550505050565b600090565b6200035d6200034e565b6200036a81848462000323565b505050565b5b8181101562000392576200038660008262000353565b60018101905062000370565b5050565b601f821115620003e157620003ab8162000255565b620003b6846200026a565b81016020851015620003c6578190505b620003de620003d5856200026a565b8301826200036f565b50505b505050565b600082821c905092915050565b60006200040660001984600802620003e6565b1980831691505092915050565b6000620004218383620003f3565b9150826002028217905092915050565b6200043c82620001b7565b67ffffffffffffffff811115620004585762000457620001c2565b5b62000464825462000220565b6200047182828562000396565b600060209050601f831160018114620004a9576000841562000494578287015190505b620004a0858262000413565b86555062000510565b601f198416620004b98662000255565b60005b82811015620004e357848901518255600182019150602085019450602081019050620004bc565b86831015620005035784890151620004ff601f891682620003f3565b8355505b6001600288020188555050505b505050505050565b600082825260208201905092915050565b7f496e76616c756420696e74657266616365207265717565737465640000000000600082015250565b600062000561601b8362000518565b91506200056e8262000529565b602082019050919050565b60006020820190508181036000830152620005948162000552565b9050919050565b61205880620005ab6000396000f3fe608060405234801561001057600080fd5b50600436106100cf5760003560e01c80636352211e1161008c57806395d89b411161006657806395d89b411461024c578063cb7125351461026a578063d85d3d2714610286578063fa02c4b7146102a2576100cf565b80636352211e146101bc57806370a08231146101ec57806393ab6e561461021c576100cf565b806301ffc9a7146100d457806306fdde031461010457806318160ddd1461012257806323b872dd146101405780632f745c591461015c5780634f6ccce71461018c575b600080fd5b6100ee60048036038101906100e99190611117565b6102be565b6040516100fb919061115f565b60405180910390f35b61010c610326565b604051610119919061120a565b60405180910390f35b61012a6103b8565b6040516101379190611245565b60405180910390f35b61015a600480360381019061015591906112ea565b6103c5565b005b6101766004803603810190610171919061133d565b61041e565b6040516101839190611245565b60405180910390f35b6101a660048036038101906101a1919061137d565b6104ce565b6040516101b39190611245565b60405180910390f35b6101d660048036038101906101d1919061137d565b61053f565b6040516101e391906113b9565b60405180910390f35b610206600480360381019061020191906113d4565b6105f0565b6040516102139190611245565b60405180910390f35b6102366004803603810190610231919061137d565b6106a7565b604051610243919061120a565b60405180910390f35b610254610753565b604051610261919061120a565b60405180910390f35b610284600480360381019061027f91906112ea565b6107e5565b005b6102a0600480360381019061029b9190611536565b610a2a565b005b6102bc60048036038101906102b7919061133d565b610b26565b005b600060026000837bffffffffffffffffffffffffffffffffffffffffffffffffffffffff19167bffffffffffffffffffffffffffffffffffffffffffffffffffffffff1916815260200190815260200160002060009054906101000a900460ff169050919050565b606060008054610335906115ae565b80601f0160208091040260200160405190810160405280929190818152602001828054610361906115ae565b80156103ae5780601f10610383576101008083540402835291602001916103ae565b820191906000526020600020905b81548152906001019060200180831161039157829003601f168201915b5050505050905090565b6000600680549050905090565b6103cf3382610cbb565b61040e576040517f08c379a00000000000000000000000000000000000000000000000000000000081526004016104059061162b565b60405180910390fd5b6104198383836107e5565b505050565b6000610429836105f0565b821061046a576040517f08c379a000000000000000000000000000000000000000000000000000000000815260040161046190611697565b60405180910390fd5b600860008473ffffffffffffffffffffffffffffffffffffffff1673ffffffffffffffffffffffffffffffffffffffff16815260200190815260200160002082815481106104bb576104ba6116b7565b5b9060005260206000200154905092915050565b60006104d86103b8565b8210610519576040517f08c379a000000000000000000000000000000000000000000000000000000000815260040161051090611732565b60405180910390fd5b6006828154811061052d5761052c6116b7565b5b90600052602060002001549050919050565b6000806003600084815260200190815260200160002060009054906101000a900473ffffffffffffffffffffffffffffffffffffffff169050600073ffffffffffffffffffffffffffffffffffffffff168173ffffffffffffffffffffffffffffffffffffffff16036105e7576040517f08c379a00000000000000000000000000000000000000000000000000000000081526004016105de906117c4565b60405180910390fd5b80915050919050565b60008073ffffffffffffffffffffffffffffffffffffffff168273ffffffffffffffffffffffffffffffffffffffff1603610660576040517f08c379a000000000000000000000000000000000000000000000000000000000815260040161065790611856565b60405180910390fd5b600460008373ffffffffffffffffffffffffffffffffffffffff1673ffffffffffffffffffffffffffffffffffffffff168152602001908152602001600020549050919050565b600a81815481106106b757600080fd5b9060005260206000200160009150905080546106d2906115ae565b80601f01602080910402602001604051908101604052809291908181526020018280546106fe906115ae565b801561074b5780601f106107205761010080835404028352916020019161074b565b820191906000526020600020905b81548152906001019060200180831161072e57829003601f168201915b505050505081565b606060018054610762906115ae565b80601f016020809104026020016040519081016040528092919081815260200182805461078e906115ae565b80156107db5780601f106107b0576101008083540402835291602001916107db565b820191906000526020600020905b8154815290600101906020018083116107be57829003601f168201915b5050505050905090565b600073ffffffffffffffffffffffffffffffffffffffff168273ffffffffffffffffffffffffffffffffffffffff1603610854576040517f08c379a000000000000000000000000000000000000000000000000000000000815260040161084b906118e8565b60405180910390fd5b8273ffffffffffffffffffffffffffffffffffffffff166108748261053f565b73ffffffffffffffffffffffffffffffffffffffff16146108ca576040517f08c379a00000000000000000000000000000000000000000000000000000000081526004016108c19061197a565b60405180910390fd5b6001600460008573ffffffffffffffffffffffffffffffffffffffff1673ffffffffffffffffffffffffffffffffffffffff168152602001908152602001600020600082825461091a91906119c9565b925050819055506001600460008473ffffffffffffffffffffffffffffffffffffffff1673ffffffffffffffffffffffffffffffffffffffff168152602001908152602001600020600082825461097191906119fd565b92505081905550816003600083815260200190815260200160002060006101000a81548173ffffffffffffffffffffffffffffffffffffffff021916908373ffffffffffffffffffffffffffffffffffffffff160217905550808273ffffffffffffffffffffffffffffffffffffffff168473ffffffffffffffffffffffffffffffffffffffff167fddf252ad1be2c89b69c2b068fc378daa952ba7f163c4a11628f55a4df523b3ef60405160405180910390a4505050565b600b81604051610a3a9190611a6d565b908152602001604051809103902060009054906101000a900460ff1615610a96576040517f08c379a0000000000000000000000000000000000000000000000000000000008152600401610a8d90611af6565b60405180910390fd5b600a81908060018154018082558091505060019003906000526020600020016000909190919091509081610aca9190611cc2565b5060006001600a80549050610adf91906119c9565b9050610aeb3382610d4a565b6001600b83604051610afd9190611a6d565b908152602001604051809103902060006101000a81548160ff0219169083151502179055505050565b610b2f8161053f565b73ffffffffffffffffffffffffffffffffffffffff163373ffffffffffffffffffffffffffffffffffffffff1614610b9c576040517f08c379a0000000000000000000000000000000000000000000000000000000008152600401610b9390611e06565b60405180910390fd5b8173ffffffffffffffffffffffffffffffffffffffff163373ffffffffffffffffffffffffffffffffffffffff1603610c0a576040517f08c379a0000000000000000000000000000000000000000000000000000000008152600401610c0190611e98565b60405180910390fd5b816005600083815260200190815260200160002060006101000a81548173ffffffffffffffffffffffffffffffffffffffff021916908373ffffffffffffffffffffffffffffffffffffffff160217905550808273ffffffffffffffffffffffffffffffffffffffff163373ffffffffffffffffffffffffffffffffffffffff167f8c5be1e5ebec7d5bd14f71427d1e84f3dd0314c0f7b2291e5b200ac8c7c3b92560405160405180910390a45050565b6000610cc682610d6b565b610d05576040517f08c379a0000000000000000000000000000000000000000000000000000000008152600401610cfc90611f04565b60405180910390fd5b6000610d108361053f565b90508073ffffffffffffffffffffffffffffffffffffffff168473ffffffffffffffffffffffffffffffffffffffff161491505092915050565b610d548282610ddd565b610d5d81610f9e565b610d678282610fe7565b5050565b6000806003600084815260200190815260200160002060009054906101000a900473ffffffffffffffffffffffffffffffffffffffff169050600073ffffffffffffffffffffffffffffffffffffffff168173ffffffffffffffffffffffffffffffffffffffff161415915050919050565b600073ffffffffffffffffffffffffffffffffffffffff168273ffffffffffffffffffffffffffffffffffffffff1603610e4c576040517f08c379a0000000000000000000000000000000000000000000000000000000008152600401610e4390611f96565b60405180910390fd5b610e5581610d6b565b15610e95576040517f08c379a0000000000000000000000000000000000000000000000000000000008152600401610e8c90612002565b60405180910390fd5b816003600083815260200190815260200160002060006101000a81548173ffffffffffffffffffffffffffffffffffffffff021916908373ffffffffffffffffffffffffffffffffffffffff1602179055506001600460008473ffffffffffffffffffffffffffffffffffffffff1673ffffffffffffffffffffffffffffffffffffffff1681526020019081526020016000206000828254610f3791906119fd565b92505081905550808273ffffffffffffffffffffffffffffffffffffffff16600073ffffffffffffffffffffffffffffffffffffffff167fddf252ad1be2c89b69c2b068fc378daa952ba7f163c4a11628f55a4df523b3ef60405160405180910390a45050565b6006805490506007600083815260200190815260200160002081905550600681908060018154018082558091505060019003906000526020600020016000909190919091505550565b600860008373ffffffffffffffffffffffffffffffffffffffff1673ffffffffffffffffffffffffffffffffffffffff168152602001908152602001600020805490506009600083815260200190815260200160002081905550600860008373ffffffffffffffffffffffffffffffffffffffff1673ffffffffffffffffffffffffffffffffffffffff1681526020019081526020016000208190806001815401808255809150506001900390600052602060002001600090919091909150555050565b6000604051905090565b600080fd5b600080fd5b60007fffffffff0000000000000000000000000000000000000000000000000000000082169050919050565b6110f4816110bf565b81146110ff57600080fd5b50565b600081359050611111816110eb565b92915050565b60006020828403121561112d5761112c6110b5565b5b600061113b84828501611102565b91505092915050565b60008115159050919050565b61115981611144565b82525050565b60006020820190506111746000830184611150565b92915050565b600081519050919050565b600082825260208201905092915050565b60005b838110156111b4578082015181840152602081019050611199565b60008484015250505050565b6000601f19601f8301169050919050565b60006111dc8261117a565b6111e68185611185565b93506111f6818560208601611196565b6111ff816111c0565b840191505092915050565b6000602082019050818103600083015261122481846111d1565b905092915050565b6000819050919050565b61123f8161122c565b82525050565b600060208201905061125a6000830184611236565b92915050565b600073ffffffffffffffffffffffffffffffffffffffff82169050919050565b600061128b82611260565b9050919050565b61129b81611280565b81146112a657600080fd5b50565b6000813590506112b881611292565b92915050565b6112c78161122c565b81146112d257600080fd5b50565b6000813590506112e4816112be565b92915050565b600080600060608486031215611303576113026110b5565b5b6000611311868287016112a9565b9350506020611322868287016112a9565b9250506040611333868287016112d5565b9150509250925092565b60008060408385031215611354576113536110b5565b5b6000611362858286016112a9565b9250506020611373858286016112d5565b9150509250929050565b600060208284031215611393576113926110b5565b5b60006113a1848285016112d5565b91505092915050565b6113b381611280565b82525050565b60006020820190506113ce60008301846113aa565b92915050565b6000602082840312156113ea576113e96110b5565b5b60006113f8848285016112a9565b91505092915050565b600080fd5b600080fd5b7f4e487b7100000000000000000000000000000000000000000000000000000000600052604160045260246000fd5b611443826111c0565b810181811067ffffffffffffffff821117156114625761146161140b565b5b80604052505050565b60006114756110ab565b9050611481828261143a565b919050565b600067ffffffffffffffff8211156114a1576114a061140b565b5b6114aa826111c0565b9050602081019050919050565b82818337600083830152505050565b60006114d96114d484611486565b61146b565b9050828152602081018484840111156114f5576114f4611406565b5b6115008482856114b7565b509392505050565b600082601f83011261151d5761151c611401565b5b813561152d8482602086016114c6565b91505092915050565b60006020828403121561154c5761154b6110b5565b5b600082013567ffffffffffffffff81111561156a576115696110ba565b5b61157684828501611508565b91505092915050565b7f4e487b7100000000000000000000000000000000000000000000000000000000600052602260045260246000fd5b600060028204905060018216806115c657607f821691505b6020821081036115d9576115d861157f565b5b50919050565b7f4552433732313a205472616e73666572206973206e6f7420617070726f766564600082015250565b6000611615602083611185565b9150611620826115df565b602082019050919050565b6000602082019050818103600083015261164481611608565b9050919050565b7f6f776e657220696e646578206973206f7574206f6620626f756e647300000000600082015250565b6000611681601c83611185565b915061168c8261164b565b602082019050919050565b600060208201905081810360008301526116b081611674565b9050919050565b7f4e487b7100000000000000000000000000000000000000000000000000000000600052603260045260246000fd5b7f676c6f62616c20696e646578206973206f7574206f6620626f756e6473000000600082015250565b600061171c601d83611185565b9150611727826116e6565b602082019050919050565b6000602082019050818103600083015261174b8161170f565b9050919050565b7f4552433732313a206f776e65724f6620746f20746865207a65726f206164647260008201527f6573730000000000000000000000000000000000000000000000000000000000602082015250565b60006117ae602383611185565b91506117b982611752565b604082019050919050565b600060208201905081810360008301526117dd816117a1565b9050919050565b7f4552433732313a2062616c616e63654f6620746f20746865207a65726f20616460008201527f6472657373000000000000000000000000000000000000000000000000000000602082015250565b6000611840602583611185565b915061184b826117e4565b604082019050919050565b6000602082019050818103600083015261186f81611833565b9050919050565b7f4552433732313a205472616e7366657220546f20496e76616c6964205265636560008201527f6976657220416464726573730000000000000000000000000000000000000000602082015250565b60006118d2602c83611185565b91506118dd82611876565b604082019050919050565b60006020820190508181036000830152611901816118c5565b9050919050565b7f4552433732313a20496e76616c696420746f6b656e204964206f776e6572206160008201527f6464726573730000000000000000000000000000000000000000000000000000602082015250565b6000611964602683611185565b915061196f82611908565b604082019050919050565b6000602082019050818103600083015261199381611957565b9050919050565b7f4e487b7100000000000000000000000000000000000000000000000000000000600052601160045260246000fd5b60006119d48261122c565b91506119df8361122c565b92508282039050818111156119f7576119f661199a565b5b92915050565b6000611a088261122c565b9150611a138361122c565b9250828201905080821115611a2b57611a2a61199a565b5b92915050565b600081905092915050565b6000611a478261117a565b611a518185611a31565b9350611a61818560208601611196565b80840191505092915050565b6000611a798284611a3c565b915081905092915050565b7f4572726f72202d206b727970746f4269726420616c726561647920657869737460008201527f7300000000000000000000000000000000000000000000000000000000000000602082015250565b6000611ae0602183611185565b9150611aeb82611a84565b604082019050919050565b60006020820190508181036000830152611b0f81611ad3565b9050919050565b60008190508160005260206000209050919050565b60006020601f8301049050919050565b600082821b905092915050565b600060088302611b787fffffffffffffffffffffffffffffffffffffffffffffffffffffffffffffffff82611b3b565b611b828683611b3b565b95508019841693508086168417925050509392505050565b6000819050919050565b6000611bbf611bba611bb58461122c565b611b9a565b61122c565b9050919050565b6000819050919050565b611bd983611ba4565b611bed611be582611bc6565b848454611b48565b825550505050565b600090565b611c02611bf5565b611c0d818484611bd0565b505050565b5b81811015611c3157611c26600082611bfa565b600181019050611c13565b5050565b601f821115611c7657611c4781611b16565b611c5084611b2b565b81016020851015611c5f578190505b611c73611c6b85611b2b565b830182611c12565b50505b505050565b600082821c905092915050565b6000611c9960001984600802611c7b565b1980831691505092915050565b6000611cb28383611c88565b9150826002028217905092915050565b611ccb8261117a565b67ffffffffffffffff811115611ce457611ce361140b565b5b611cee82546115ae565b611cf9828285611c35565b600060209050601f831160018114611d2c5760008415611d1a578287015190505b611d248582611ca6565b865550611d8c565b601f198416611d3a86611b16565b60005b82811015611d6257848901518255600182019150602085019450602081019050611d3d565b86831015611d7f5784890151611d7b601f891682611c88565b8355505b6001600288020188555050505b505050505050565b7f4552433732313a2063757272656e742063616c6c6572206973206e6f7420746860008201527f65206f776e6572206f662074686520746f6b656e000000000000000000000000602082015250565b6000611df0603483611185565b9150611dfb82611d94565b604082019050919050565b60006020820190508181036000830152611e1f81611de3565b9050919050565b7f4552433732313a20617070726f76616c20746f2063757272656e74206f776e6560008201527f7200000000000000000000000000000000000000000000000000000000000000602082015250565b6000611e82602183611185565b9150611e8d82611e26565b604082019050919050565b60006020820190508181036000830152611eb181611e75565b9050919050565b7f455243373231213a20546f6b656e20646f6573206e6f74206578697374000000600082015250565b6000611eee601d83611185565b9150611ef982611eb8565b602082019050919050565b60006020820190508181036000830152611f1d81611ee1565b9050919050565b7f4552433732313a206d696e74696e6720746f20746865207a65726f206164647260008201527f6573730000000000000000000000000000000000000000000000000000000000602082015250565b6000611f80602383611185565b9150611f8b82611f24565b604082019050919050565b60006020820190508181036000830152611faf81611f73565b9050919050565b7f4552433732313a20746f6b656e20616c7265616479206d696e74656400000000600082015250565b6000611fec601c83611185565b9150611ff782611fb6565b602082019050919050565b6000602082019050818103600083015261201b81611fdf565b905091905056fea2646970667358221220550183a36314f22fd79a995e08396e43d9b0fa9e65c1968e94bbbfcc0c24cbce64736f6c63430008100033",
  "immutableReferences": {},
  "source": "// SPDX-License-Identifier: MIT\npragma solidity ^0.8.0;\n\nimport \"./ERC721Connector.sol\";\n\ncontract KryptoBird is ERC721Connector {\n\n    // array to store our nfts\n    string [] public kryptoBirdz;\n\n    // keep track of kryptobirdz minted\n    mapping(string => bool) _kryptoBirdzExists;\n\n    constructor() \n        ERC721Connector(\"KryptoBird\", \"KBIRDZ\") {}\n\n    function mint(string memory _kryptoBird) public {\n        require(!_kryptoBirdzExists[_kryptoBird],\n        'Error - kryptoBird already exists');\n        \n        // add a kryptobird into our list of kryptobirdz\n        kryptoBirdz.push(_kryptoBird);\n\n        uint _id = kryptoBirdz.length - 1;\n\n        _mint(msg.sender, _id);\n\n        _kryptoBirdzExists[_kryptoBird] = true;\n    }\n}",
  "sourcePath": "/Users/diracmurairi/Documents/projects/nft-marketplace/src/contracts/KryptoBirdz.sol",
  "compiler": {
    "name": "solc",
    "version": "0.8.16+commit.07a7930e.Emscripten.clang"
  },
  "schemaVersion": "3.4.9",
  "updatedAt": "2022-08-29T16:17:46.622Z",
  "devdoc": {
    "kind": "dev",
    "methods": {
      "_transferFrom(address,address,uint256)": {
        "params": {
          "_from": "The current owner of the NFT",
          "_to": "The NFT's receiver (The new owner)",
          "_tokenId": "The NFT to transfer"
        }
      },
      "balanceOf(address)": {
        "details": "NFTs assigned to the zero address are considered invalid, and function throws for queries abount the zero address.",
        "params": {
          "_owner": "Address for whom to query the balance"
        },
        "returns": {
          "_0": "uint256 The number of NFTs owned by _owner possib;u zero. "
        }
      },
      "ownerOf(uint256)": {
        "details": "NFTs assigned to zero address are considered invalid, and query about then do throw.",
        "params": {
          "_tokenId": "the id ok the nft we want to check."
        },
        "returns": {
          "_0": "address owner of the token"
        }
      },
      "supportsInterface(bytes4)": {
        "details": "Interface identification is specified in ERC-165. This function  uses less than 30,000 gas.",
        "params": {
          "interfaceID": "The interface identifier, as specified in ERC-165"
        },
        "returns": {
          "_0": "`true` if the contract implements `interfaceID` and  `interfaceID` is not 0xffffffff, `false` otherwise"
        }
      },
      "tokenByIndex(uint256)": {
        "details": "throws if `index` >= `totalSupply()`.",
        "params": {
          "index": "A counter less than `totoalSupply`"
        },
        "returns": {
          "_0": "uint256 The token identifier for the `_index`th NFT, (sort order not specified)"
        }
      },
      "totalSupply()": {
        "returns": {
          "_0": "uint256 A count of valid NFTs tracked by this contract,"
        }
      }
    },
    "version": 1
  },
  "userdoc": {
    "kind": "user",
    "methods": {
      "_transferFrom(address,address,uint256)": {
        "notice": "transfer nft from one address to another"
      },
      "balanceOf(address)": {
        "notice": "Count all NFTs assigned to an owner"
      },
      "ownerOf(uint256)": {
        "notice": "Find the owner of an NFT"
      },
      "supportsInterface(bytes4)": {
        "notice": "Query if a contract implements an interface"
      },
      "tokenByIndex(uint256)": {
        "notice": "Enumerate valid NFTs"
      },
      "totalSupply()": {
        "notice": "count NFTs tracked by thus contract"
      }
    },
    "version": 1
  }
}